{
	"contracts/joan.sol": {
		"KYC": {
			"abi": [
				{
					"inputs": [],
					"stateMutability": "nonpayable",
					"type": "constructor"
				},
				{
					"anonymous": false,
					"inputs": [
						{
							"indexed": true,
							"internalType": "address",
							"name": "customerAddress",
							"type": "address"
						},
						{
							"indexed": false,
							"internalType": "string",
							"name": "fullName",
							"type": "string"
						},
						{
							"indexed": false,
							"internalType": "uint256",
							"name": "idNumber",
							"type": "uint256"
						}
					],
					"name": "CustomerVerified",
					"type": "event"
				},
				{
					"inputs": [
						{
							"internalType": "address",
							"name": "",
							"type": "address"
						}
					],
					"name": "customers",
					"outputs": [
						{
							"internalType": "bool",
							"name": "isVerified",
							"type": "bool"
						},
						{
							"internalType": "string",
							"name": "fullName",
							"type": "string"
						},
						{
							"internalType": "uint256",
							"name": "idNumber",
							"type": "uint256"
						}
					],
					"stateMutability": "view",
					"type": "function"
				},
				{
					"inputs": [
						{
							"internalType": "address",
							"name": "_customerAddress",
							"type": "address"
						}
					],
					"name": "getCustomer",
					"outputs": [
						{
							"internalType": "bool",
							"name": "isVerified",
							"type": "bool"
						},
						{
							"internalType": "string",
							"name": "fullName",
							"type": "string"
						},
						{
							"internalType": "uint256",
							"name": "idNumber",
							"type": "uint256"
						}
					],
					"stateMutability": "view",
					"type": "function"
				},
				{
					"inputs": [
						{
							"internalType": "address",
							"name": "_customerAddress",
							"type": "address"
						},
						{
							"internalType": "string",
							"name": "_fullName",
							"type": "string"
						},
						{
							"internalType": "uint256",
							"name": "_idNumber",
							"type": "uint256"
						}
					],
					"name": "verifyCustomer",
					"outputs": [],
					"stateMutability": "nonpayable",
					"type": "function"
				}
			],
			"devdoc": {
				"kind": "dev",
				"methods": {},
				"version": 1
			},
			"evm": {
				"assembly": "    /* \"contracts/joan.sol\":60:1193  contract KYC {... */\n  mstore(0x40, 0x80)\n    /* \"contracts/joan.sol\":490:541  constructor() {... */\n  callvalue\n  dup1\n  iszero\n  tag_1\n  jumpi\n  0x00\n  dup1\n  revert\ntag_1:\n  pop\n    /* \"contracts/joan.sol\":523:533  msg.sender */\n  caller\n    /* \"contracts/joan.sol\":515:520  admin */\n  0x00\n  dup1\n    /* \"contracts/joan.sol\":515:533  admin = msg.sender */\n  0x0100\n  exp\n  dup2\n  sload\n  dup2\n  0xffffffffffffffffffffffffffffffffffffffff\n  mul\n  not\n  and\n  swap1\n  dup4\n  0xffffffffffffffffffffffffffffffffffffffff\n  and\n  mul\n  or\n  swap1\n  sstore\n  pop\n    /* \"contracts/joan.sol\":60:1193  contract KYC {... */\n  dataSize(sub_0)\n  dup1\n  dataOffset(sub_0)\n  0x00\n  codecopy\n  0x00\n  return\nstop\n\nsub_0: assembly {\n        /* \"contracts/joan.sol\":60:1193  contract KYC {... */\n      mstore(0x40, 0x80)\n      callvalue\n      dup1\n      iszero\n      tag_1\n      jumpi\n      0x00\n      dup1\n      revert\n    tag_1:\n      pop\n      jumpi(tag_2, lt(calldatasize, 0x04))\n      shr(0xe0, calldataload(0x00))\n      dup1\n      0x336989ae\n      eq\n      tag_3\n      jumpi\n      dup1\n      0xcb949e51\n      eq\n      tag_4\n      jumpi\n      dup1\n      0xf8c47849\n      eq\n      tag_5\n      jumpi\n    tag_2:\n      0x00\n      dup1\n      revert\n        /* \"contracts/joan.sol\":211:256  mapping(address => Customer) public customers */\n    tag_3:\n      tag_6\n      0x04\n      dup1\n      calldatasize\n      sub\n      dup2\n      add\n      swap1\n      tag_7\n      swap2\n      swap1\n      tag_8\n      jump\t// in\n    tag_7:\n      tag_9\n      jump\t// in\n    tag_6:\n      mload(0x40)\n      tag_10\n      swap4\n      swap3\n      swap2\n      swap1\n      tag_11\n      jump\t// in\n    tag_10:\n      mload(0x40)\n      dup1\n      swap2\n      sub\n      swap1\n      return\n        /* \"contracts/joan.sol\":921:1190  function getCustomer(address _customerAddress) public view returns (bool isVerified, string memory fullName, uint256 idNumber) {... */\n    tag_4:\n      tag_12\n      0x04\n      dup1\n      calldatasize\n      sub\n      dup2\n      add\n      swap1\n      tag_13\n      swap2\n      swap1\n      tag_8\n      jump\t// in\n    tag_13:\n      tag_14\n      jump\t// in\n    tag_12:\n      mload(0x40)\n      tag_15\n      swap4\n      swap3\n      swap2\n      swap1\n      tag_11\n      jump\t// in\n    tag_15:\n      mload(0x40)\n      dup1\n      swap2\n      sub\n      swap1\n      return\n        /* \"contracts/joan.sol\":549:913  function verifyCustomer(address _customerAddress, string memory _fullName, uint256 _idNumber) public onlyAdmin {... */\n    tag_5:\n      tag_16\n      0x04\n      dup1\n      calldatasize\n      sub\n      dup2\n      add\n      swap1\n      tag_17\n      swap2\n      swap1\n      tag_18\n      jump\t// in\n    tag_17:\n      tag_19\n      jump\t// in\n    tag_16:\n      stop\n        /* \"contracts/joan.sol\":211:256  mapping(address => Customer) public customers */\n    tag_9:\n      mstore(0x20, 0x01)\n      dup1\n      0x00\n      mstore\n      keccak256(0x00, 0x40)\n      0x00\n      swap2\n      pop\n      swap1\n      pop\n      dup1\n      0x00\n      add\n      0x00\n      swap1\n      sload\n      swap1\n      0x0100\n      exp\n      swap1\n      div\n      0xff\n      and\n      swap1\n      dup1\n      0x01\n      add\n      dup1\n      sload\n      tag_20\n      swap1\n      tag_21\n      jump\t// in\n    tag_20:\n      dup1\n      0x1f\n      add\n      0x20\n      dup1\n      swap2\n      div\n      mul\n      0x20\n      add\n      mload(0x40)\n      swap1\n      dup2\n      add\n      0x40\n      mstore\n      dup1\n      swap3\n      swap2\n      swap1\n      dup2\n      dup2\n      mstore\n      0x20\n      add\n      dup3\n      dup1\n      sload\n      tag_22\n      swap1\n      tag_21\n      jump\t// in\n    tag_22:\n      dup1\n      iszero\n      tag_23\n      jumpi\n      dup1\n      0x1f\n      lt\n      tag_24\n      jumpi\n      0x0100\n      dup1\n      dup4\n      sload\n      div\n      mul\n      dup4\n      mstore\n      swap2\n      0x20\n      add\n      swap2\n      jump(tag_23)\n    tag_24:\n      dup3\n      add\n      swap2\n      swap1\n      0x00\n      mstore\n      keccak256(0x00, 0x20)\n      swap1\n    tag_25:\n      dup2\n      sload\n      dup2\n      mstore\n      swap1\n      0x01\n      add\n      swap1\n      0x20\n      add\n      dup1\n      dup4\n      gt\n      tag_25\n      jumpi\n      dup3\n      swap1\n      sub\n      0x1f\n      and\n      dup3\n      add\n      swap2\n    tag_23:\n      pop\n      pop\n      pop\n      pop\n      pop\n      swap1\n      dup1\n      0x02\n      add\n      sload\n      swap1\n      pop\n      dup4\n      jump\t// out\n        /* \"contracts/joan.sol\":921:1190  function getCustomer(address _customerAddress) public view returns (bool isVerified, string memory fullName, uint256 idNumber) {... */\n    tag_14:\n        /* \"contracts/joan.sol\":989:1004  bool isVerified */\n      0x00\n        /* \"contracts/joan.sol\":1006:1028  string memory fullName */\n      0x60\n        /* \"contracts/joan.sol\":1030:1046  uint256 idNumber */\n      0x00\n        /* \"contracts/joan.sol\":1067:1076  customers */\n      0x01\n        /* \"contracts/joan.sol\":1067:1094  customers[_customerAddress] */\n      0x00\n        /* \"contracts/joan.sol\":1077:1093  _customerAddress */\n      dup6\n        /* \"contracts/joan.sol\":1067:1094  customers[_customerAddress] */\n      0xffffffffffffffffffffffffffffffffffffffff\n      and\n      0xffffffffffffffffffffffffffffffffffffffff\n      and\n      dup2\n      mstore\n      0x20\n      add\n      swap1\n      dup2\n      mstore\n      0x20\n      add\n      0x00\n      keccak256\n        /* \"contracts/joan.sol\":1067:1105  customers[_customerAddress].isVerified */\n      0x00\n      add\n      0x00\n      swap1\n      sload\n      swap1\n      0x0100\n      exp\n      swap1\n      div\n      0xff\n      and\n        /* \"contracts/joan.sol\":1107:1116  customers */\n      0x01\n        /* \"contracts/joan.sol\":1107:1134  customers[_customerAddress] */\n      0x00\n        /* \"contracts/joan.sol\":1117:1133  _customerAddress */\n      dup7\n        /* \"contracts/joan.sol\":1107:1134  customers[_customerAddress] */\n      0xffffffffffffffffffffffffffffffffffffffff\n      and\n      0xffffffffffffffffffffffffffffffffffffffff\n      and\n      dup2\n      mstore\n      0x20\n      add\n      swap1\n      dup2\n      mstore\n      0x20\n      add\n      0x00\n      keccak256\n        /* \"contracts/joan.sol\":1107:1143  customers[_customerAddress].fullName */\n      0x01\n      add\n        /* \"contracts/joan.sol\":1145:1154  customers */\n      0x01\n        /* \"contracts/joan.sol\":1145:1172  customers[_customerAddress] */\n      0x00\n        /* \"contracts/joan.sol\":1155:1171  _customerAddress */\n      dup8\n        /* \"contracts/joan.sol\":1145:1172  customers[_customerAddress] */\n      0xffffffffffffffffffffffffffffffffffffffff\n      and\n      0xffffffffffffffffffffffffffffffffffffffff\n      and\n      dup2\n      mstore\n      0x20\n      add\n      swap1\n      dup2\n      mstore\n      0x20\n      add\n      0x00\n      keccak256\n        /* \"contracts/joan.sol\":1145:1181  customers[_customerAddress].idNumber */\n      0x02\n      add\n      sload\n        /* \"contracts/joan.sol\":1059:1182  return (customers[_customerAddress].isVerified, customers[_customerAddress].fullName, customers[_customerAddress].idNumber) */\n      dup2\n      dup1\n      sload\n      tag_27\n      swap1\n      tag_21\n      jump\t// in\n    tag_27:\n      dup1\n      0x1f\n      add\n      0x20\n      dup1\n      swap2\n      div\n      mul\n      0x20\n      add\n      mload(0x40)\n      swap1\n      dup2\n      add\n      0x40\n      mstore\n      dup1\n      swap3\n      swap2\n      swap1\n      dup2\n      dup2\n      mstore\n      0x20\n      add\n      dup3\n      dup1\n      sload\n      tag_28\n      swap1\n      tag_21\n      jump\t// in\n    tag_28:\n      dup1\n      iszero\n      tag_29\n      jumpi\n      dup1\n      0x1f\n      lt\n      tag_30\n      jumpi\n      0x0100\n      dup1\n      dup4\n      sload\n      div\n      mul\n      dup4\n      mstore\n      swap2\n      0x20\n      add\n      swap2\n      jump(tag_29)\n    tag_30:\n      dup3\n      add\n      swap2\n      swap1\n      0x00\n      mstore\n      keccak256(0x00, 0x20)\n      swap1\n    tag_31:\n      dup2\n      sload\n      dup2\n      mstore\n      swap1\n      0x01\n      add\n      swap1\n      0x20\n      add\n      dup1\n      dup4\n      gt\n      tag_31\n      jumpi\n      dup3\n      swap1\n      sub\n      0x1f\n      and\n      dup3\n      add\n      swap2\n    tag_29:\n      pop\n      pop\n      pop\n      pop\n      pop\n      swap2\n      pop\n      swap3\n      pop\n      swap3\n      pop\n      swap3\n      pop\n        /* \"contracts/joan.sol\":921:1190  function getCustomer(address _customerAddress) public view returns (bool isVerified, string memory fullName, uint256 idNumber) {... */\n      swap2\n      swap4\n      swap1\n      swap3\n      pop\n      jump\t// out\n        /* \"contracts/joan.sol\":549:913  function verifyCustomer(address _customerAddress, string memory _fullName, uint256 _idNumber) public onlyAdmin {... */\n    tag_19:\n        /* \"contracts/joan.sol\":418:423  admin */\n      0x00\n      dup1\n      sload\n      swap1\n      0x0100\n      exp\n      swap1\n      div\n      0xffffffffffffffffffffffffffffffffffffffff\n      and\n        /* \"contracts/joan.sol\":404:423  msg.sender == admin */\n      0xffffffffffffffffffffffffffffffffffffffff\n      and\n        /* \"contracts/joan.sol\":404:414  msg.sender */\n      caller\n        /* \"contracts/joan.sol\":404:423  msg.sender == admin */\n      0xffffffffffffffffffffffffffffffffffffffff\n      and\n      eq\n        /* \"contracts/joan.sol\":396:462  require(msg.sender == admin, \"Only admin can perform this action\") */\n      tag_33\n      jumpi\n      mload(0x40)\n      0x08c379a000000000000000000000000000000000000000000000000000000000\n      dup2\n      mstore\n      0x04\n      add\n      tag_34\n      swap1\n      tag_35\n      jump\t// in\n    tag_34:\n      mload(0x40)\n      dup1\n      swap2\n      sub\n      swap1\n      revert\n    tag_33:\n        /* \"contracts/joan.sol\":721:726  false */\n      0x00\n        /* \"contracts/joan.sol\":679:726  customers[_customerAddress].isVerified == false */\n      iszero\n      iszero\n        /* \"contracts/joan.sol\":679:688  customers */\n      0x01\n        /* \"contracts/joan.sol\":679:706  customers[_customerAddress] */\n      0x00\n        /* \"contracts/joan.sol\":689:705  _customerAddress */\n      dup6\n        /* \"contracts/joan.sol\":679:706  customers[_customerAddress] */\n      0xffffffffffffffffffffffffffffffffffffffff\n      and\n      0xffffffffffffffffffffffffffffffffffffffff\n      and\n      dup2\n      mstore\n      0x20\n      add\n      swap1\n      dup2\n      mstore\n      0x20\n      add\n      0x00\n      keccak256\n        /* \"contracts/joan.sol\":679:717  customers[_customerAddress].isVerified */\n      0x00\n      add\n      0x00\n      swap1\n      sload\n      swap1\n      0x0100\n      exp\n      swap1\n      div\n      0xff\n      and\n        /* \"contracts/joan.sol\":679:726  customers[_customerAddress].isVerified == false */\n      iszero\n      iszero\n      eq\n        /* \"contracts/joan.sol\":671:756  require(customers[_customerAddress].isVerified == false, \"Customer already verified\") */\n      tag_37\n      jumpi\n      mload(0x40)\n      0x08c379a000000000000000000000000000000000000000000000000000000000\n      dup2\n      mstore\n      0x04\n      add\n      tag_38\n      swap1\n      tag_39\n      jump\t// in\n    tag_38:\n      mload(0x40)\n      dup1\n      swap2\n      sub\n      swap1\n      revert\n    tag_37:\n        /* \"contracts/joan.sol\":797:833  Customer(true, _fullName, _idNumber) */\n      mload(0x40)\n      dup1\n      0x60\n      add\n      0x40\n      mstore\n      dup1\n        /* \"contracts/joan.sol\":806:810  true */\n      0x01\n        /* \"contracts/joan.sol\":797:833  Customer(true, _fullName, _idNumber) */\n      iszero\n      iszero\n      dup2\n      mstore\n      0x20\n      add\n        /* \"contracts/joan.sol\":812:821  _fullName */\n      dup4\n        /* \"contracts/joan.sol\":797:833  Customer(true, _fullName, _idNumber) */\n      dup2\n      mstore\n      0x20\n      add\n        /* \"contracts/joan.sol\":823:832  _idNumber */\n      dup3\n        /* \"contracts/joan.sol\":797:833  Customer(true, _fullName, _idNumber) */\n      dup2\n      mstore\n      pop\n        /* \"contracts/joan.sol\":767:776  customers */\n      0x01\n        /* \"contracts/joan.sol\":767:794  customers[_customerAddress] */\n      0x00\n        /* \"contracts/joan.sol\":777:793  _customerAddress */\n      dup6\n        /* \"contracts/joan.sol\":767:794  customers[_customerAddress] */\n      0xffffffffffffffffffffffffffffffffffffffff\n      and\n      0xffffffffffffffffffffffffffffffffffffffff\n      and\n      dup2\n      mstore\n      0x20\n      add\n      swap1\n      dup2\n      mstore\n      0x20\n      add\n      0x00\n      keccak256\n        /* \"contracts/joan.sol\":767:833  customers[_customerAddress] = Customer(true, _fullName, _idNumber) */\n      0x00\n      dup3\n      add\n      mload\n      dup2\n      0x00\n      add\n      exp(0x0100, 0x00)\n      dup2\n      sload\n      dup2\n      0xff\n      mul\n      not\n      and\n      swap1\n      dup4\n      iszero\n      iszero\n      mul\n      or\n      swap1\n      sstore\n      pop\n      0x20\n      dup3\n      add\n      mload\n      dup2\n      0x01\n      add\n      swap1\n      dup2\n      tag_40\n      swap2\n      swap1\n      tag_41\n      jump\t// in\n    tag_40:\n      pop\n      0x40\n      dup3\n      add\n      mload\n      dup2\n      0x02\n      add\n      sstore\n      swap1\n      pop\n      pop\n        /* \"contracts/joan.sol\":866:882  _customerAddress */\n      dup3\n        /* \"contracts/joan.sol\":849:905  CustomerVerified(_customerAddress, _fullName, _idNumber) */\n      0xffffffffffffffffffffffffffffffffffffffff\n      and\n      0x958be9ce265b942557be2c8ee28229be0917eff33a932bcb7749a33b798b53f8\n        /* \"contracts/joan.sol\":884:893  _fullName */\n      dup4\n        /* \"contracts/joan.sol\":895:904  _idNumber */\n      dup4\n        /* \"contracts/joan.sol\":849:905  CustomerVerified(_customerAddress, _fullName, _idNumber) */\n      mload(0x40)\n      tag_42\n      swap3\n      swap2\n      swap1\n      tag_43\n      jump\t// in\n    tag_42:\n      mload(0x40)\n      dup1\n      swap2\n      sub\n      swap1\n      log2\n        /* \"contracts/joan.sol\":549:913  function verifyCustomer(address _customerAddress, string memory _fullName, uint256 _idNumber) public onlyAdmin {... */\n      pop\n      pop\n      pop\n      jump\t// out\n        /* \"#utility.yul\":7:82   */\n    tag_44:\n        /* \"#utility.yul\":40:46   */\n      0x00\n        /* \"#utility.yul\":73:75   */\n      0x40\n        /* \"#utility.yul\":67:76   */\n      mload\n        /* \"#utility.yul\":57:76   */\n      swap1\n      pop\n        /* \"#utility.yul\":7:82   */\n      swap1\n      jump\t// out\n        /* \"#utility.yul\":88:205   */\n    tag_45:\n        /* \"#utility.yul\":197:198   */\n      0x00\n        /* \"#utility.yul\":194:195   */\n      dup1\n        /* \"#utility.yul\":187:199   */\n      revert\n        /* \"#utility.yul\":211:328   */\n    tag_46:\n        /* \"#utility.yul\":320:321   */\n      0x00\n        /* \"#utility.yul\":317:318   */\n      dup1\n        /* \"#utility.yul\":310:322   */\n      revert\n        /* \"#utility.yul\":334:460   */\n    tag_47:\n        /* \"#utility.yul\":371:378   */\n      0x00\n        /* \"#utility.yul\":411:453   */\n      0xffffffffffffffffffffffffffffffffffffffff\n        /* \"#utility.yul\":404:409   */\n      dup3\n        /* \"#utility.yul\":400:454   */\n      and\n        /* \"#utility.yul\":389:454   */\n      swap1\n      pop\n        /* \"#utility.yul\":334:460   */\n      swap2\n      swap1\n      pop\n      jump\t// out\n        /* \"#utility.yul\":466:562   */\n    tag_48:\n        /* \"#utility.yul\":503:510   */\n      0x00\n        /* \"#utility.yul\":532:556   */\n      tag_97\n        /* \"#utility.yul\":550:555   */\n      dup3\n        /* \"#utility.yul\":532:556   */\n      tag_47\n      jump\t// in\n    tag_97:\n        /* \"#utility.yul\":521:556   */\n      swap1\n      pop\n        /* \"#utility.yul\":466:562   */\n      swap2\n      swap1\n      pop\n      jump\t// out\n        /* \"#utility.yul\":568:690   */\n    tag_49:\n        /* \"#utility.yul\":641:665   */\n      tag_99\n        /* \"#utility.yul\":659:664   */\n      dup2\n        /* \"#utility.yul\":641:665   */\n      tag_48\n      jump\t// in\n    tag_99:\n        /* \"#utility.yul\":634:639   */\n      dup2\n        /* \"#utility.yul\":631:666   */\n      eq\n        /* \"#utility.yul\":621:684   */\n      tag_100\n      jumpi\n        /* \"#utility.yul\":680:681   */\n      0x00\n        /* \"#utility.yul\":677:678   */\n      dup1\n        /* \"#utility.yul\":670:682   */\n      revert\n        /* \"#utility.yul\":621:684   */\n    tag_100:\n        /* \"#utility.yul\":568:690   */\n      pop\n      jump\t// out\n        /* \"#utility.yul\":696:835   */\n    tag_50:\n        /* \"#utility.yul\":742:747   */\n      0x00\n        /* \"#utility.yul\":780:786   */\n      dup2\n        /* \"#utility.yul\":767:787   */\n      calldataload\n        /* \"#utility.yul\":758:787   */\n      swap1\n      pop\n        /* \"#utility.yul\":796:829   */\n      tag_102\n        /* \"#utility.yul\":823:828   */\n      dup2\n        /* \"#utility.yul\":796:829   */\n      tag_49\n      jump\t// in\n    tag_102:\n        /* \"#utility.yul\":696:835   */\n      swap3\n      swap2\n      pop\n      pop\n      jump\t// out\n        /* \"#utility.yul\":841:1170   */\n    tag_8:\n        /* \"#utility.yul\":900:906   */\n      0x00\n        /* \"#utility.yul\":949:951   */\n      0x20\n        /* \"#utility.yul\":937:946   */\n      dup3\n        /* \"#utility.yul\":928:935   */\n      dup5\n        /* \"#utility.yul\":924:947   */\n      sub\n        /* \"#utility.yul\":920:952   */\n      slt\n        /* \"#utility.yul\":917:1036   */\n      iszero\n      tag_104\n      jumpi\n        /* \"#utility.yul\":955:1034   */\n      tag_105\n      tag_45\n      jump\t// in\n    tag_105:\n        /* \"#utility.yul\":917:1036   */\n    tag_104:\n        /* \"#utility.yul\":1075:1076   */\n      0x00\n        /* \"#utility.yul\":1100:1153   */\n      tag_106\n        /* \"#utility.yul\":1145:1152   */\n      dup5\n        /* \"#utility.yul\":1136:1142   */\n      dup3\n        /* \"#utility.yul\":1125:1134   */\n      dup6\n        /* \"#utility.yul\":1121:1143   */\n      add\n        /* \"#utility.yul\":1100:1153   */\n      tag_50\n      jump\t// in\n    tag_106:\n        /* \"#utility.yul\":1090:1153   */\n      swap2\n      pop\n        /* \"#utility.yul\":1046:1163   */\n      pop\n        /* \"#utility.yul\":841:1170   */\n      swap3\n      swap2\n      pop\n      pop\n      jump\t// out\n        /* \"#utility.yul\":1176:1266   */\n    tag_51:\n        /* \"#utility.yul\":1210:1217   */\n      0x00\n        /* \"#utility.yul\":1253:1258   */\n      dup2\n        /* \"#utility.yul\":1246:1259   */\n      iszero\n        /* \"#utility.yul\":1239:1260   */\n      iszero\n        /* \"#utility.yul\":1228:1260   */\n      swap1\n      pop\n        /* \"#utility.yul\":1176:1266   */\n      swap2\n      swap1\n      pop\n      jump\t// out\n        /* \"#utility.yul\":1272:1381   */\n    tag_52:\n        /* \"#utility.yul\":1353:1374   */\n      tag_109\n        /* \"#utility.yul\":1368:1373   */\n      dup2\n        /* \"#utility.yul\":1353:1374   */\n      tag_51\n      jump\t// in\n    tag_109:\n        /* \"#utility.yul\":1348:1351   */\n      dup3\n        /* \"#utility.yul\":1341:1375   */\n      mstore\n        /* \"#utility.yul\":1272:1381   */\n      pop\n      pop\n      jump\t// out\n        /* \"#utility.yul\":1387:1486   */\n    tag_53:\n        /* \"#utility.yul\":1439:1445   */\n      0x00\n        /* \"#utility.yul\":1473:1478   */\n      dup2\n        /* \"#utility.yul\":1467:1479   */\n      mload\n        /* \"#utility.yul\":1457:1479   */\n      swap1\n      pop\n        /* \"#utility.yul\":1387:1486   */\n      swap2\n      swap1\n      pop\n      jump\t// out\n        /* \"#utility.yul\":1492:1661   */\n    tag_54:\n        /* \"#utility.yul\":1576:1587   */\n      0x00\n        /* \"#utility.yul\":1610:1616   */\n      dup3\n        /* \"#utility.yul\":1605:1608   */\n      dup3\n        /* \"#utility.yul\":1598:1617   */\n      mstore\n        /* \"#utility.yul\":1650:1654   */\n      0x20\n        /* \"#utility.yul\":1645:1648   */\n      dup3\n        /* \"#utility.yul\":1641:1655   */\n      add\n        /* \"#utility.yul\":1626:1655   */\n      swap1\n      pop\n        /* \"#utility.yul\":1492:1661   */\n      swap3\n      swap2\n      pop\n      pop\n      jump\t// out\n        /* \"#utility.yul\":1667:1913   */\n    tag_55:\n        /* \"#utility.yul\":1748:1749   */\n      0x00\n        /* \"#utility.yul\":1758:1871   */\n    tag_113:\n        /* \"#utility.yul\":1772:1778   */\n      dup4\n        /* \"#utility.yul\":1769:1770   */\n      dup2\n        /* \"#utility.yul\":1766:1779   */\n      lt\n        /* \"#utility.yul\":1758:1871   */\n      iszero\n      tag_115\n      jumpi\n        /* \"#utility.yul\":1857:1858   */\n      dup1\n        /* \"#utility.yul\":1852:1855   */\n      dup3\n        /* \"#utility.yul\":1848:1859   */\n      add\n        /* \"#utility.yul\":1842:1860   */\n      mload\n        /* \"#utility.yul\":1838:1839   */\n      dup2\n        /* \"#utility.yul\":1833:1836   */\n      dup5\n        /* \"#utility.yul\":1829:1840   */\n      add\n        /* \"#utility.yul\":1822:1861   */\n      mstore\n        /* \"#utility.yul\":1794:1796   */\n      0x20\n        /* \"#utility.yul\":1791:1792   */\n      dup2\n        /* \"#utility.yul\":1787:1797   */\n      add\n        /* \"#utility.yul\":1782:1797   */\n      swap1\n      pop\n        /* \"#utility.yul\":1758:1871   */\n      jump(tag_113)\n    tag_115:\n        /* \"#utility.yul\":1905:1906   */\n      0x00\n        /* \"#utility.yul\":1896:1902   */\n      dup5\n        /* \"#utility.yul\":1891:1894   */\n      dup5\n        /* \"#utility.yul\":1887:1903   */\n      add\n        /* \"#utility.yul\":1880:1907   */\n      mstore\n        /* \"#utility.yul\":1729:1913   */\n      pop\n        /* \"#utility.yul\":1667:1913   */\n      pop\n      pop\n      pop\n      jump\t// out\n        /* \"#utility.yul\":1919:2021   */\n    tag_56:\n        /* \"#utility.yul\":1960:1966   */\n      0x00\n        /* \"#utility.yul\":2011:2013   */\n      0x1f\n        /* \"#utility.yul\":2007:2014   */\n      not\n        /* \"#utility.yul\":2002:2004   */\n      0x1f\n        /* \"#utility.yul\":1995:2000   */\n      dup4\n        /* \"#utility.yul\":1991:2005   */\n      add\n        /* \"#utility.yul\":1987:2015   */\n      and\n        /* \"#utility.yul\":1977:2015   */\n      swap1\n      pop\n        /* \"#utility.yul\":1919:2021   */\n      swap2\n      swap1\n      pop\n      jump\t// out\n        /* \"#utility.yul\":2027:2404   */\n    tag_57:\n        /* \"#utility.yul\":2115:2118   */\n      0x00\n        /* \"#utility.yul\":2143:2182   */\n      tag_118\n        /* \"#utility.yul\":2176:2181   */\n      dup3\n        /* \"#utility.yul\":2143:2182   */\n      tag_53\n      jump\t// in\n    tag_118:\n        /* \"#utility.yul\":2198:2269   */\n      tag_119\n        /* \"#utility.yul\":2262:2268   */\n      dup2\n        /* \"#utility.yul\":2257:2260   */\n      dup6\n        /* \"#utility.yul\":2198:2269   */\n      tag_54\n      jump\t// in\n    tag_119:\n        /* \"#utility.yul\":2191:2269   */\n      swap4\n      pop\n        /* \"#utility.yul\":2278:2343   */\n      tag_120\n        /* \"#utility.yul\":2336:2342   */\n      dup2\n        /* \"#utility.yul\":2331:2334   */\n      dup6\n        /* \"#utility.yul\":2324:2328   */\n      0x20\n        /* \"#utility.yul\":2317:2322   */\n      dup7\n        /* \"#utility.yul\":2313:2329   */\n      add\n        /* \"#utility.yul\":2278:2343   */\n      tag_55\n      jump\t// in\n    tag_120:\n        /* \"#utility.yul\":2368:2397   */\n      tag_121\n        /* \"#utility.yul\":2390:2396   */\n      dup2\n        /* \"#utility.yul\":2368:2397   */\n      tag_56\n      jump\t// in\n    tag_121:\n        /* \"#utility.yul\":2363:2366   */\n      dup5\n        /* \"#utility.yul\":2359:2398   */\n      add\n        /* \"#utility.yul\":2352:2398   */\n      swap2\n      pop\n        /* \"#utility.yul\":2119:2404   */\n      pop\n        /* \"#utility.yul\":2027:2404   */\n      swap3\n      swap2\n      pop\n      pop\n      jump\t// out\n        /* \"#utility.yul\":2410:2487   */\n    tag_58:\n        /* \"#utility.yul\":2447:2454   */\n      0x00\n        /* \"#utility.yul\":2476:2481   */\n      dup2\n        /* \"#utility.yul\":2465:2481   */\n      swap1\n      pop\n        /* \"#utility.yul\":2410:2487   */\n      swap2\n      swap1\n      pop\n      jump\t// out\n        /* \"#utility.yul\":2493:2611   */\n    tag_59:\n        /* \"#utility.yul\":2580:2604   */\n      tag_124\n        /* \"#utility.yul\":2598:2603   */\n      dup2\n        /* \"#utility.yul\":2580:2604   */\n      tag_58\n      jump\t// in\n    tag_124:\n        /* \"#utility.yul\":2575:2578   */\n      dup3\n        /* \"#utility.yul\":2568:2605   */\n      mstore\n        /* \"#utility.yul\":2493:2611   */\n      pop\n      pop\n      jump\t// out\n        /* \"#utility.yul\":2617:3138   */\n    tag_11:\n        /* \"#utility.yul\":2780:2784   */\n      0x00\n        /* \"#utility.yul\":2818:2820   */\n      0x60\n        /* \"#utility.yul\":2807:2816   */\n      dup3\n        /* \"#utility.yul\":2803:2821   */\n      add\n        /* \"#utility.yul\":2795:2821   */\n      swap1\n      pop\n        /* \"#utility.yul\":2831:2896   */\n      tag_126\n        /* \"#utility.yul\":2893:2894   */\n      0x00\n        /* \"#utility.yul\":2882:2891   */\n      dup4\n        /* \"#utility.yul\":2878:2895   */\n      add\n        /* \"#utility.yul\":2869:2875   */\n      dup7\n        /* \"#utility.yul\":2831:2896   */\n      tag_52\n      jump\t// in\n    tag_126:\n        /* \"#utility.yul\":2943:2952   */\n      dup2\n        /* \"#utility.yul\":2937:2941   */\n      dup2\n        /* \"#utility.yul\":2933:2953   */\n      sub\n        /* \"#utility.yul\":2928:2930   */\n      0x20\n        /* \"#utility.yul\":2917:2926   */\n      dup4\n        /* \"#utility.yul\":2913:2931   */\n      add\n        /* \"#utility.yul\":2906:2954   */\n      mstore\n        /* \"#utility.yul\":2971:3049   */\n      tag_127\n        /* \"#utility.yul\":3044:3048   */\n      dup2\n        /* \"#utility.yul\":3035:3041   */\n      dup6\n        /* \"#utility.yul\":2971:3049   */\n      tag_57\n      jump\t// in\n    tag_127:\n        /* \"#utility.yul\":2963:3049   */\n      swap1\n      pop\n        /* \"#utility.yul\":3059:3131   */\n      tag_128\n        /* \"#utility.yul\":3127:3129   */\n      0x40\n        /* \"#utility.yul\":3116:3125   */\n      dup4\n        /* \"#utility.yul\":3112:3130   */\n      add\n        /* \"#utility.yul\":3103:3109   */\n      dup5\n        /* \"#utility.yul\":3059:3131   */\n      tag_59\n      jump\t// in\n    tag_128:\n        /* \"#utility.yul\":2617:3138   */\n      swap5\n      swap4\n      pop\n      pop\n      pop\n      pop\n      jump\t// out\n        /* \"#utility.yul\":3144:3261   */\n    tag_60:\n        /* \"#utility.yul\":3253:3254   */\n      0x00\n        /* \"#utility.yul\":3250:3251   */\n      dup1\n        /* \"#utility.yul\":3243:3255   */\n      revert\n        /* \"#utility.yul\":3267:3384   */\n    tag_61:\n        /* \"#utility.yul\":3376:3377   */\n      0x00\n        /* \"#utility.yul\":3373:3374   */\n      dup1\n        /* \"#utility.yul\":3366:3378   */\n      revert\n        /* \"#utility.yul\":3390:3570   */\n    tag_62:\n        /* \"#utility.yul\":3438:3515   */\n      0x4e487b7100000000000000000000000000000000000000000000000000000000\n        /* \"#utility.yul\":3435:3436   */\n      0x00\n        /* \"#utility.yul\":3428:3516   */\n      mstore\n        /* \"#utility.yul\":3535:3539   */\n      0x41\n        /* \"#utility.yul\":3532:3533   */\n      0x04\n        /* \"#utility.yul\":3525:3540   */\n      mstore\n        /* \"#utility.yul\":3559:3563   */\n      0x24\n        /* \"#utility.yul\":3556:3557   */\n      0x00\n        /* \"#utility.yul\":3549:3564   */\n      revert\n        /* \"#utility.yul\":3576:3857   */\n    tag_63:\n        /* \"#utility.yul\":3659:3686   */\n      tag_133\n        /* \"#utility.yul\":3681:3685   */\n      dup3\n        /* \"#utility.yul\":3659:3686   */\n      tag_56\n      jump\t// in\n    tag_133:\n        /* \"#utility.yul\":3651:3657   */\n      dup2\n        /* \"#utility.yul\":3647:3687   */\n      add\n        /* \"#utility.yul\":3789:3795   */\n      dup2\n        /* \"#utility.yul\":3777:3787   */\n      dup2\n        /* \"#utility.yul\":3774:3796   */\n      lt\n        /* \"#utility.yul\":3753:3771   */\n      0xffffffffffffffff\n        /* \"#utility.yul\":3741:3751   */\n      dup3\n        /* \"#utility.yul\":3738:3772   */\n      gt\n        /* \"#utility.yul\":3735:3797   */\n      or\n        /* \"#utility.yul\":3732:3820   */\n      iszero\n      tag_134\n      jumpi\n        /* \"#utility.yul\":3800:3818   */\n      tag_135\n      tag_62\n      jump\t// in\n    tag_135:\n        /* \"#utility.yul\":3732:3820   */\n    tag_134:\n        /* \"#utility.yul\":3840:3850   */\n      dup1\n        /* \"#utility.yul\":3836:3838   */\n      0x40\n        /* \"#utility.yul\":3829:3851   */\n      mstore\n        /* \"#utility.yul\":3619:3857   */\n      pop\n        /* \"#utility.yul\":3576:3857   */\n      pop\n      pop\n      jump\t// out\n        /* \"#utility.yul\":3863:3992   */\n    tag_64:\n        /* \"#utility.yul\":3897:3903   */\n      0x00\n        /* \"#utility.yul\":3924:3944   */\n      tag_137\n      tag_44\n      jump\t// in\n    tag_137:\n        /* \"#utility.yul\":3914:3944   */\n      swap1\n      pop\n        /* \"#utility.yul\":3953:3986   */\n      tag_138\n        /* \"#utility.yul\":3981:3985   */\n      dup3\n        /* \"#utility.yul\":3973:3979   */\n      dup3\n        /* \"#utility.yul\":3953:3986   */\n      tag_63\n      jump\t// in\n    tag_138:\n        /* \"#utility.yul\":3863:3992   */\n      swap2\n      swap1\n      pop\n      jump\t// out\n        /* \"#utility.yul\":3998:4306   */\n    tag_65:\n        /* \"#utility.yul\":4060:4064   */\n      0x00\n        /* \"#utility.yul\":4150:4168   */\n      0xffffffffffffffff\n        /* \"#utility.yul\":4142:4148   */\n      dup3\n        /* \"#utility.yul\":4139:4169   */\n      gt\n        /* \"#utility.yul\":4136:4192   */\n      iszero\n      tag_140\n      jumpi\n        /* \"#utility.yul\":4172:4190   */\n      tag_141\n      tag_62\n      jump\t// in\n    tag_141:\n        /* \"#utility.yul\":4136:4192   */\n    tag_140:\n        /* \"#utility.yul\":4210:4239   */\n      tag_142\n        /* \"#utility.yul\":4232:4238   */\n      dup3\n        /* \"#utility.yul\":4210:4239   */\n      tag_56\n      jump\t// in\n    tag_142:\n        /* \"#utility.yul\":4202:4239   */\n      swap1\n      pop\n        /* \"#utility.yul\":4294:4298   */\n      0x20\n        /* \"#utility.yul\":4288:4292   */\n      dup2\n        /* \"#utility.yul\":4284:4299   */\n      add\n        /* \"#utility.yul\":4276:4299   */\n      swap1\n      pop\n        /* \"#utility.yul\":3998:4306   */\n      swap2\n      swap1\n      pop\n      jump\t// out\n        /* \"#utility.yul\":4312:4458   */\n    tag_66:\n        /* \"#utility.yul\":4409:4415   */\n      dup3\n        /* \"#utility.yul\":4404:4407   */\n      dup2\n        /* \"#utility.yul\":4399:4402   */\n      dup4\n        /* \"#utility.yul\":4386:4416   */\n      calldatacopy\n        /* \"#utility.yul\":4450:4451   */\n      0x00\n        /* \"#utility.yul\":4441:4447   */\n      dup4\n        /* \"#utility.yul\":4436:4439   */\n      dup4\n        /* \"#utility.yul\":4432:4448   */\n      add\n        /* \"#utility.yul\":4425:4452   */\n      mstore\n        /* \"#utility.yul\":4312:4458   */\n      pop\n      pop\n      pop\n      jump\t// out\n        /* \"#utility.yul\":4464:4889   */\n    tag_67:\n        /* \"#utility.yul\":4542:4547   */\n      0x00\n        /* \"#utility.yul\":4567:4633   */\n      tag_145\n        /* \"#utility.yul\":4583:4632   */\n      tag_146\n        /* \"#utility.yul\":4625:4631   */\n      dup5\n        /* \"#utility.yul\":4583:4632   */\n      tag_65\n      jump\t// in\n    tag_146:\n        /* \"#utility.yul\":4567:4633   */\n      tag_64\n      jump\t// in\n    tag_145:\n        /* \"#utility.yul\":4558:4633   */\n      swap1\n      pop\n        /* \"#utility.yul\":4656:4662   */\n      dup3\n        /* \"#utility.yul\":4649:4654   */\n      dup2\n        /* \"#utility.yul\":4642:4663   */\n      mstore\n        /* \"#utility.yul\":4694:4698   */\n      0x20\n        /* \"#utility.yul\":4687:4692   */\n      dup2\n        /* \"#utility.yul\":4683:4699   */\n      add\n        /* \"#utility.yul\":4732:4735   */\n      dup5\n        /* \"#utility.yul\":4723:4729   */\n      dup5\n        /* \"#utility.yul\":4718:4721   */\n      dup5\n        /* \"#utility.yul\":4714:4730   */\n      add\n        /* \"#utility.yul\":4711:4736   */\n      gt\n        /* \"#utility.yul\":4708:4820   */\n      iszero\n      tag_147\n      jumpi\n        /* \"#utility.yul\":4739:4818   */\n      tag_148\n      tag_61\n      jump\t// in\n    tag_148:\n        /* \"#utility.yul\":4708:4820   */\n    tag_147:\n        /* \"#utility.yul\":4829:4883   */\n      tag_149\n        /* \"#utility.yul\":4876:4882   */\n      dup5\n        /* \"#utility.yul\":4871:4874   */\n      dup3\n        /* \"#utility.yul\":4866:4869   */\n      dup6\n        /* \"#utility.yul\":4829:4883   */\n      tag_66\n      jump\t// in\n    tag_149:\n        /* \"#utility.yul\":4548:4889   */\n      pop\n        /* \"#utility.yul\":4464:4889   */\n      swap4\n      swap3\n      pop\n      pop\n      pop\n      jump\t// out\n        /* \"#utility.yul\":4909:5249   */\n    tag_68:\n        /* \"#utility.yul\":4965:4970   */\n      0x00\n        /* \"#utility.yul\":5014:5017   */\n      dup3\n        /* \"#utility.yul\":5007:5011   */\n      0x1f\n        /* \"#utility.yul\":4999:5005   */\n      dup4\n        /* \"#utility.yul\":4995:5012   */\n      add\n        /* \"#utility.yul\":4991:5018   */\n      slt\n        /* \"#utility.yul\":4981:5103   */\n      tag_151\n      jumpi\n        /* \"#utility.yul\":5022:5101   */\n      tag_152\n      tag_60\n      jump\t// in\n    tag_152:\n        /* \"#utility.yul\":4981:5103   */\n    tag_151:\n        /* \"#utility.yul\":5139:5145   */\n      dup2\n        /* \"#utility.yul\":5126:5146   */\n      calldataload\n        /* \"#utility.yul\":5164:5243   */\n      tag_153\n        /* \"#utility.yul\":5239:5242   */\n      dup5\n        /* \"#utility.yul\":5231:5237   */\n      dup3\n        /* \"#utility.yul\":5224:5228   */\n      0x20\n        /* \"#utility.yul\":5216:5222   */\n      dup7\n        /* \"#utility.yul\":5212:5229   */\n      add\n        /* \"#utility.yul\":5164:5243   */\n      tag_67\n      jump\t// in\n    tag_153:\n        /* \"#utility.yul\":5155:5243   */\n      swap2\n      pop\n        /* \"#utility.yul\":4971:5249   */\n      pop\n        /* \"#utility.yul\":4909:5249   */\n      swap3\n      swap2\n      pop\n      pop\n      jump\t// out\n        /* \"#utility.yul\":5255:5377   */\n    tag_69:\n        /* \"#utility.yul\":5328:5352   */\n      tag_155\n        /* \"#utility.yul\":5346:5351   */\n      dup2\n        /* \"#utility.yul\":5328:5352   */\n      tag_58\n      jump\t// in\n    tag_155:\n        /* \"#utility.yul\":5321:5326   */\n      dup2\n        /* \"#utility.yul\":5318:5353   */\n      eq\n        /* \"#utility.yul\":5308:5371   */\n      tag_156\n      jumpi\n        /* \"#utility.yul\":5367:5368   */\n      0x00\n        /* \"#utility.yul\":5364:5365   */\n      dup1\n        /* \"#utility.yul\":5357:5369   */\n      revert\n        /* \"#utility.yul\":5308:5371   */\n    tag_156:\n        /* \"#utility.yul\":5255:5377   */\n      pop\n      jump\t// out\n        /* \"#utility.yul\":5383:5522   */\n    tag_70:\n        /* \"#utility.yul\":5429:5434   */\n      0x00\n        /* \"#utility.yul\":5467:5473   */\n      dup2\n        /* \"#utility.yul\":5454:5474   */\n      calldataload\n        /* \"#utility.yul\":5445:5474   */\n      swap1\n      pop\n        /* \"#utility.yul\":5483:5516   */\n      tag_158\n        /* \"#utility.yul\":5510:5515   */\n      dup2\n        /* \"#utility.yul\":5483:5516   */\n      tag_69\n      jump\t// in\n    tag_158:\n        /* \"#utility.yul\":5383:5522   */\n      swap3\n      swap2\n      pop\n      pop\n      jump\t// out\n        /* \"#utility.yul\":5528:6327   */\n    tag_18:\n        /* \"#utility.yul\":5615:5621   */\n      0x00\n        /* \"#utility.yul\":5623:5629   */\n      dup1\n        /* \"#utility.yul\":5631:5637   */\n      0x00\n        /* \"#utility.yul\":5680:5682   */\n      0x60\n        /* \"#utility.yul\":5668:5677   */\n      dup5\n        /* \"#utility.yul\":5659:5666   */\n      dup7\n        /* \"#utility.yul\":5655:5678   */\n      sub\n        /* \"#utility.yul\":5651:5683   */\n      slt\n        /* \"#utility.yul\":5648:5767   */\n      iszero\n      tag_160\n      jumpi\n        /* \"#utility.yul\":5686:5765   */\n      tag_161\n      tag_45\n      jump\t// in\n    tag_161:\n        /* \"#utility.yul\":5648:5767   */\n    tag_160:\n        /* \"#utility.yul\":5806:5807   */\n      0x00\n        /* \"#utility.yul\":5831:5884   */\n      tag_162\n        /* \"#utility.yul\":5876:5883   */\n      dup7\n        /* \"#utility.yul\":5867:5873   */\n      dup3\n        /* \"#utility.yul\":5856:5865   */\n      dup8\n        /* \"#utility.yul\":5852:5874   */\n      add\n        /* \"#utility.yul\":5831:5884   */\n      tag_50\n      jump\t// in\n    tag_162:\n        /* \"#utility.yul\":5821:5884   */\n      swap4\n      pop\n        /* \"#utility.yul\":5777:5894   */\n      pop\n        /* \"#utility.yul\":5961:5963   */\n      0x20\n        /* \"#utility.yul\":5950:5959   */\n      dup5\n        /* \"#utility.yul\":5946:5964   */\n      add\n        /* \"#utility.yul\":5933:5965   */\n      calldataload\n        /* \"#utility.yul\":5992:6010   */\n      0xffffffffffffffff\n        /* \"#utility.yul\":5984:5990   */\n      dup2\n        /* \"#utility.yul\":5981:6011   */\n      gt\n        /* \"#utility.yul\":5978:6095   */\n      iszero\n      tag_163\n      jumpi\n        /* \"#utility.yul\":6014:6093   */\n      tag_164\n      tag_46\n      jump\t// in\n    tag_164:\n        /* \"#utility.yul\":5978:6095   */\n    tag_163:\n        /* \"#utility.yul\":6119:6182   */\n      tag_165\n        /* \"#utility.yul\":6174:6181   */\n      dup7\n        /* \"#utility.yul\":6165:6171   */\n      dup3\n        /* \"#utility.yul\":6154:6163   */\n      dup8\n        /* \"#utility.yul\":6150:6172   */\n      add\n        /* \"#utility.yul\":6119:6182   */\n      tag_68\n      jump\t// in\n    tag_165:\n        /* \"#utility.yul\":6109:6182   */\n      swap3\n      pop\n        /* \"#utility.yul\":5904:6192   */\n      pop\n        /* \"#utility.yul\":6231:6233   */\n      0x40\n        /* \"#utility.yul\":6257:6310   */\n      tag_166\n        /* \"#utility.yul\":6302:6309   */\n      dup7\n        /* \"#utility.yul\":6293:6299   */\n      dup3\n        /* \"#utility.yul\":6282:6291   */\n      dup8\n        /* \"#utility.yul\":6278:6300   */\n      add\n        /* \"#utility.yul\":6257:6310   */\n      tag_70\n      jump\t// in\n    tag_166:\n        /* \"#utility.yul\":6247:6310   */\n      swap2\n      pop\n        /* \"#utility.yul\":6202:6320   */\n      pop\n        /* \"#utility.yul\":5528:6327   */\n      swap3\n      pop\n      swap3\n      pop\n      swap3\n      jump\t// out\n        /* \"#utility.yul\":6333:6513   */\n    tag_71:\n        /* \"#utility.yul\":6381:6458   */\n      0x4e487b7100000000000000000000000000000000000000000000000000000000\n        /* \"#utility.yul\":6378:6379   */\n      0x00\n        /* \"#utility.yul\":6371:6459   */\n      mstore\n        /* \"#utility.yul\":6478:6482   */\n      0x22\n        /* \"#utility.yul\":6475:6476   */\n      0x04\n        /* \"#utility.yul\":6468:6483   */\n      mstore\n        /* \"#utility.yul\":6502:6506   */\n      0x24\n        /* \"#utility.yul\":6499:6500   */\n      0x00\n        /* \"#utility.yul\":6492:6507   */\n      revert\n        /* \"#utility.yul\":6519:6839   */\n    tag_21:\n        /* \"#utility.yul\":6563:6569   */\n      0x00\n        /* \"#utility.yul\":6600:6601   */\n      0x02\n        /* \"#utility.yul\":6594:6598   */\n      dup3\n        /* \"#utility.yul\":6590:6602   */\n      div\n        /* \"#utility.yul\":6580:6602   */\n      swap1\n      pop\n        /* \"#utility.yul\":6647:6648   */\n      0x01\n        /* \"#utility.yul\":6641:6645   */\n      dup3\n        /* \"#utility.yul\":6637:6649   */\n      and\n        /* \"#utility.yul\":6668:6686   */\n      dup1\n        /* \"#utility.yul\":6658:6739   */\n      tag_169\n      jumpi\n        /* \"#utility.yul\":6724:6728   */\n      0x7f\n        /* \"#utility.yul\":6716:6722   */\n      dup3\n        /* \"#utility.yul\":6712:6729   */\n      and\n        /* \"#utility.yul\":6702:6729   */\n      swap2\n      pop\n        /* \"#utility.yul\":6658:6739   */\n    tag_169:\n        /* \"#utility.yul\":6786:6788   */\n      0x20\n        /* \"#utility.yul\":6778:6784   */\n      dup3\n        /* \"#utility.yul\":6775:6789   */\n      lt\n        /* \"#utility.yul\":6755:6773   */\n      dup2\n        /* \"#utility.yul\":6752:6790   */\n      sub\n        /* \"#utility.yul\":6749:6833   */\n      tag_170\n      jumpi\n        /* \"#utility.yul\":6805:6823   */\n      tag_171\n      tag_71\n      jump\t// in\n    tag_171:\n        /* \"#utility.yul\":6749:6833   */\n    tag_170:\n        /* \"#utility.yul\":6570:6839   */\n      pop\n        /* \"#utility.yul\":6519:6839   */\n      swap2\n      swap1\n      pop\n      jump\t// out\n        /* \"#utility.yul\":6845:7066   */\n    tag_72:\n        /* \"#utility.yul\":6985:7019   */\n      0x4f6e6c792061646d696e2063616e20706572666f726d20746869732061637469\n        /* \"#utility.yul\":6981:6982   */\n      0x00\n        /* \"#utility.yul\":6973:6979   */\n      dup3\n        /* \"#utility.yul\":6969:6983   */\n      add\n        /* \"#utility.yul\":6962:7020   */\n      mstore\n        /* \"#utility.yul\":7054:7058   */\n      0x6f6e000000000000000000000000000000000000000000000000000000000000\n        /* \"#utility.yul\":7049:7051   */\n      0x20\n        /* \"#utility.yul\":7041:7047   */\n      dup3\n        /* \"#utility.yul\":7037:7052   */\n      add\n        /* \"#utility.yul\":7030:7059   */\n      mstore\n        /* \"#utility.yul\":6845:7066   */\n      pop\n      jump\t// out\n        /* \"#utility.yul\":7072:7438   */\n    tag_73:\n        /* \"#utility.yul\":7214:7217   */\n      0x00\n        /* \"#utility.yul\":7235:7302   */\n      tag_174\n        /* \"#utility.yul\":7299:7301   */\n      0x22\n        /* \"#utility.yul\":7294:7297   */\n      dup4\n        /* \"#utility.yul\":7235:7302   */\n      tag_54\n      jump\t// in\n    tag_174:\n        /* \"#utility.yul\":7228:7302   */\n      swap2\n      pop\n        /* \"#utility.yul\":7311:7404   */\n      tag_175\n        /* \"#utility.yul\":7400:7403   */\n      dup3\n        /* \"#utility.yul\":7311:7404   */\n      tag_72\n      jump\t// in\n    tag_175:\n        /* \"#utility.yul\":7429:7431   */\n      0x40\n        /* \"#utility.yul\":7424:7427   */\n      dup3\n        /* \"#utility.yul\":7420:7432   */\n      add\n        /* \"#utility.yul\":7413:7432   */\n      swap1\n      pop\n        /* \"#utility.yul\":7072:7438   */\n      swap2\n      swap1\n      pop\n      jump\t// out\n        /* \"#utility.yul\":7444:7863   */\n    tag_35:\n        /* \"#utility.yul\":7610:7614   */\n      0x00\n        /* \"#utility.yul\":7648:7650   */\n      0x20\n        /* \"#utility.yul\":7637:7646   */\n      dup3\n        /* \"#utility.yul\":7633:7651   */\n      add\n        /* \"#utility.yul\":7625:7651   */\n      swap1\n      pop\n        /* \"#utility.yul\":7697:7706   */\n      dup2\n        /* \"#utility.yul\":7691:7695   */\n      dup2\n        /* \"#utility.yul\":7687:7707   */\n      sub\n        /* \"#utility.yul\":7683:7684   */\n      0x00\n        /* \"#utility.yul\":7672:7681   */\n      dup4\n        /* \"#utility.yul\":7668:7685   */\n      add\n        /* \"#utility.yul\":7661:7708   */\n      mstore\n        /* \"#utility.yul\":7725:7856   */\n      tag_177\n        /* \"#utility.yul\":7851:7855   */\n      dup2\n        /* \"#utility.yul\":7725:7856   */\n      tag_73\n      jump\t// in\n    tag_177:\n        /* \"#utility.yul\":7717:7856   */\n      swap1\n      pop\n        /* \"#utility.yul\":7444:7863   */\n      swap2\n      swap1\n      pop\n      jump\t// out\n        /* \"#utility.yul\":7869:8044   */\n    tag_74:\n        /* \"#utility.yul\":8009:8036   */\n      0x437573746f6d657220616c726561647920766572696669656400000000000000\n        /* \"#utility.yul\":8005:8006   */\n      0x00\n        /* \"#utility.yul\":7997:8003   */\n      dup3\n        /* \"#utility.yul\":7993:8007   */\n      add\n        /* \"#utility.yul\":7986:8037   */\n      mstore\n        /* \"#utility.yul\":7869:8044   */\n      pop\n      jump\t// out\n        /* \"#utility.yul\":8050:8416   */\n    tag_75:\n        /* \"#utility.yul\":8192:8195   */\n      0x00\n        /* \"#utility.yul\":8213:8280   */\n      tag_180\n        /* \"#utility.yul\":8277:8279   */\n      0x19\n        /* \"#utility.yul\":8272:8275   */\n      dup4\n        /* \"#utility.yul\":8213:8280   */\n      tag_54\n      jump\t// in\n    tag_180:\n        /* \"#utility.yul\":8206:8280   */\n      swap2\n      pop\n        /* \"#utility.yul\":8289:8382   */\n      tag_181\n        /* \"#utility.yul\":8378:8381   */\n      dup3\n        /* \"#utility.yul\":8289:8382   */\n      tag_74\n      jump\t// in\n    tag_181:\n        /* \"#utility.yul\":8407:8409   */\n      0x20\n        /* \"#utility.yul\":8402:8405   */\n      dup3\n        /* \"#utility.yul\":8398:8410   */\n      add\n        /* \"#utility.yul\":8391:8410   */\n      swap1\n      pop\n        /* \"#utility.yul\":8050:8416   */\n      swap2\n      swap1\n      pop\n      jump\t// out\n        /* \"#utility.yul\":8422:8841   */\n    tag_39:\n        /* \"#utility.yul\":8588:8592   */\n      0x00\n        /* \"#utility.yul\":8626:8628   */\n      0x20\n        /* \"#utility.yul\":8615:8624   */\n      dup3\n        /* \"#utility.yul\":8611:8629   */\n      add\n        /* \"#utility.yul\":8603:8629   */\n      swap1\n      pop\n        /* \"#utility.yul\":8675:8684   */\n      dup2\n        /* \"#utility.yul\":8669:8673   */\n      dup2\n        /* \"#utility.yul\":8665:8685   */\n      sub\n        /* \"#utility.yul\":8661:8662   */\n      0x00\n        /* \"#utility.yul\":8650:8659   */\n      dup4\n        /* \"#utility.yul\":8646:8663   */\n      add\n        /* \"#utility.yul\":8639:8686   */\n      mstore\n        /* \"#utility.yul\":8703:8834   */\n      tag_183\n        /* \"#utility.yul\":8829:8833   */\n      dup2\n        /* \"#utility.yul\":8703:8834   */\n      tag_75\n      jump\t// in\n    tag_183:\n        /* \"#utility.yul\":8695:8834   */\n      swap1\n      pop\n        /* \"#utility.yul\":8422:8841   */\n      swap2\n      swap1\n      pop\n      jump\t// out\n        /* \"#utility.yul\":8847:8988   */\n    tag_76:\n        /* \"#utility.yul\":8896:8900   */\n      0x00\n        /* \"#utility.yul\":8919:8922   */\n      dup2\n        /* \"#utility.yul\":8911:8922   */\n      swap1\n      pop\n        /* \"#utility.yul\":8942:8945   */\n      dup2\n        /* \"#utility.yul\":8939:8940   */\n      0x00\n        /* \"#utility.yul\":8932:8946   */\n      mstore\n        /* \"#utility.yul\":8976:8980   */\n      0x20\n        /* \"#utility.yul\":8973:8974   */\n      0x00\n        /* \"#utility.yul\":8963:8981   */\n      keccak256\n        /* \"#utility.yul\":8955:8981   */\n      swap1\n      pop\n        /* \"#utility.yul\":8847:8988   */\n      swap2\n      swap1\n      pop\n      jump\t// out\n        /* \"#utility.yul\":8994:9087   */\n    tag_77:\n        /* \"#utility.yul\":9031:9037   */\n      0x00\n        /* \"#utility.yul\":9078:9080   */\n      0x20\n        /* \"#utility.yul\":9073:9075   */\n      0x1f\n        /* \"#utility.yul\":9066:9071   */\n      dup4\n        /* \"#utility.yul\":9062:9076   */\n      add\n        /* \"#utility.yul\":9058:9081   */\n      div\n        /* \"#utility.yul\":9048:9081   */\n      swap1\n      pop\n        /* \"#utility.yul\":8994:9087   */\n      swap2\n      swap1\n      pop\n      jump\t// out\n        /* \"#utility.yul\":9093:9200   */\n    tag_78:\n        /* \"#utility.yul\":9137:9145   */\n      0x00\n        /* \"#utility.yul\":9187:9192   */\n      dup3\n        /* \"#utility.yul\":9181:9185   */\n      dup3\n        /* \"#utility.yul\":9177:9193   */\n      shl\n        /* \"#utility.yul\":9156:9193   */\n      swap1\n      pop\n        /* \"#utility.yul\":9093:9200   */\n      swap3\n      swap2\n      pop\n      pop\n      jump\t// out\n        /* \"#utility.yul\":9206:9599   */\n    tag_79:\n        /* \"#utility.yul\":9275:9281   */\n      0x00\n        /* \"#utility.yul\":9325:9326   */\n      0x08\n        /* \"#utility.yul\":9313:9323   */\n      dup4\n        /* \"#utility.yul\":9309:9327   */\n      mul\n        /* \"#utility.yul\":9348:9445   */\n      tag_188\n        /* \"#utility.yul\":9378:9444   */\n      0xffffffffffffffffffffffffffffffffffffffffffffffffffffffffffffffff\n        /* \"#utility.yul\":9367:9376   */\n      dup3\n        /* \"#utility.yul\":9348:9445   */\n      tag_78\n      jump\t// in\n    tag_188:\n        /* \"#utility.yul\":9466:9505   */\n      tag_189\n        /* \"#utility.yul\":9496:9504   */\n      dup7\n        /* \"#utility.yul\":9485:9494   */\n      dup4\n        /* \"#utility.yul\":9466:9505   */\n      tag_78\n      jump\t// in\n    tag_189:\n        /* \"#utility.yul\":9454:9505   */\n      swap6\n      pop\n        /* \"#utility.yul\":9538:9542   */\n      dup1\n        /* \"#utility.yul\":9534:9543   */\n      not\n        /* \"#utility.yul\":9527:9532   */\n      dup5\n        /* \"#utility.yul\":9523:9544   */\n      and\n        /* \"#utility.yul\":9514:9544   */\n      swap4\n      pop\n        /* \"#utility.yul\":9587:9591   */\n      dup1\n        /* \"#utility.yul\":9577:9585   */\n      dup7\n        /* \"#utility.yul\":9573:9592   */\n      and\n        /* \"#utility.yul\":9566:9571   */\n      dup5\n        /* \"#utility.yul\":9563:9593   */\n      or\n        /* \"#utility.yul\":9553:9593   */\n      swap3\n      pop\n        /* \"#utility.yul\":9282:9599   */\n      pop\n      pop\n        /* \"#utility.yul\":9206:9599   */\n      swap4\n      swap3\n      pop\n      pop\n      pop\n      jump\t// out\n        /* \"#utility.yul\":9605:9665   */\n    tag_80:\n        /* \"#utility.yul\":9633:9636   */\n      0x00\n        /* \"#utility.yul\":9654:9659   */\n      dup2\n        /* \"#utility.yul\":9647:9659   */\n      swap1\n      pop\n        /* \"#utility.yul\":9605:9665   */\n      swap2\n      swap1\n      pop\n      jump\t// out\n        /* \"#utility.yul\":9671:9813   */\n    tag_81:\n        /* \"#utility.yul\":9721:9730   */\n      0x00\n        /* \"#utility.yul\":9754:9807   */\n      tag_192\n        /* \"#utility.yul\":9772:9806   */\n      tag_193\n        /* \"#utility.yul\":9781:9805   */\n      tag_194\n        /* \"#utility.yul\":9799:9804   */\n      dup5\n        /* \"#utility.yul\":9781:9805   */\n      tag_58\n      jump\t// in\n    tag_194:\n        /* \"#utility.yul\":9772:9806   */\n      tag_80\n      jump\t// in\n    tag_193:\n        /* \"#utility.yul\":9754:9807   */\n      tag_58\n      jump\t// in\n    tag_192:\n        /* \"#utility.yul\":9741:9807   */\n      swap1\n      pop\n        /* \"#utility.yul\":9671:9813   */\n      swap2\n      swap1\n      pop\n      jump\t// out\n        /* \"#utility.yul\":9819:9894   */\n    tag_82:\n        /* \"#utility.yul\":9862:9865   */\n      0x00\n        /* \"#utility.yul\":9883:9888   */\n      dup2\n        /* \"#utility.yul\":9876:9888   */\n      swap1\n      pop\n        /* \"#utility.yul\":9819:9894   */\n      swap2\n      swap1\n      pop\n      jump\t// out\n        /* \"#utility.yul\":9900:10169   */\n    tag_83:\n        /* \"#utility.yul\":10010:10049   */\n      tag_197\n        /* \"#utility.yul\":10041:10048   */\n      dup4\n        /* \"#utility.yul\":10010:10049   */\n      tag_81\n      jump\t// in\n    tag_197:\n        /* \"#utility.yul\":10071:10162   */\n      tag_198\n        /* \"#utility.yul\":10120:10161   */\n      tag_199\n        /* \"#utility.yul\":10144:10160   */\n      dup3\n        /* \"#utility.yul\":10120:10161   */\n      tag_82\n      jump\t// in\n    tag_199:\n        /* \"#utility.yul\":10112:10118   */\n      dup5\n        /* \"#utility.yul\":10105:10109   */\n      dup5\n        /* \"#utility.yul\":10099:10110   */\n      sload\n        /* \"#utility.yul\":10071:10162   */\n      tag_79\n      jump\t// in\n    tag_198:\n        /* \"#utility.yul\":10065:10069   */\n      dup3\n        /* \"#utility.yul\":10058:10163   */\n      sstore\n        /* \"#utility.yul\":9976:10169   */\n      pop\n        /* \"#utility.yul\":9900:10169   */\n      pop\n      pop\n      pop\n      jump\t// out\n        /* \"#utility.yul\":10175:10248   */\n    tag_84:\n        /* \"#utility.yul\":10220:10223   */\n      0x00\n        /* \"#utility.yul\":10175:10248   */\n      swap1\n      jump\t// out\n        /* \"#utility.yul\":10254:10443   */\n    tag_85:\n        /* \"#utility.yul\":10331:10363   */\n      tag_202\n      tag_84\n      jump\t// in\n    tag_202:\n        /* \"#utility.yul\":10372:10437   */\n      tag_203\n        /* \"#utility.yul\":10430:10436   */\n      dup2\n        /* \"#utility.yul\":10422:10428   */\n      dup5\n        /* \"#utility.yul\":10416:10420   */\n      dup5\n        /* \"#utility.yul\":10372:10437   */\n      tag_83\n      jump\t// in\n    tag_203:\n        /* \"#utility.yul\":10307:10443   */\n      pop\n        /* \"#utility.yul\":10254:10443   */\n      pop\n      pop\n      jump\t// out\n        /* \"#utility.yul\":10449:10635   */\n    tag_86:\n        /* \"#utility.yul\":10509:10629   */\n    tag_205:\n        /* \"#utility.yul\":10526:10529   */\n      dup2\n        /* \"#utility.yul\":10519:10524   */\n      dup2\n        /* \"#utility.yul\":10516:10530   */\n      lt\n        /* \"#utility.yul\":10509:10629   */\n      iszero\n      tag_207\n      jumpi\n        /* \"#utility.yul\":10580:10619   */\n      tag_208\n        /* \"#utility.yul\":10617:10618   */\n      0x00\n        /* \"#utility.yul\":10610:10615   */\n      dup3\n        /* \"#utility.yul\":10580:10619   */\n      tag_85\n      jump\t// in\n    tag_208:\n        /* \"#utility.yul\":10553:10554   */\n      0x01\n        /* \"#utility.yul\":10546:10551   */\n      dup2\n        /* \"#utility.yul\":10542:10555   */\n      add\n        /* \"#utility.yul\":10533:10555   */\n      swap1\n      pop\n        /* \"#utility.yul\":10509:10629   */\n      jump(tag_205)\n    tag_207:\n        /* \"#utility.yul\":10449:10635   */\n      pop\n      pop\n      jump\t// out\n        /* \"#utility.yul\":10641:11184   */\n    tag_87:\n        /* \"#utility.yul\":10742:10744   */\n      0x1f\n        /* \"#utility.yul\":10737:10740   */\n      dup3\n        /* \"#utility.yul\":10734:10745   */\n      gt\n        /* \"#utility.yul\":10731:11177   */\n      iszero\n      tag_210\n      jumpi\n        /* \"#utility.yul\":10776:10814   */\n      tag_211\n        /* \"#utility.yul\":10808:10813   */\n      dup2\n        /* \"#utility.yul\":10776:10814   */\n      tag_76\n      jump\t// in\n    tag_211:\n        /* \"#utility.yul\":10860:10889   */\n      tag_212\n        /* \"#utility.yul\":10878:10888   */\n      dup5\n        /* \"#utility.yul\":10860:10889   */\n      tag_77\n      jump\t// in\n    tag_212:\n        /* \"#utility.yul\":10850:10858   */\n      dup2\n        /* \"#utility.yul\":10846:10890   */\n      add\n        /* \"#utility.yul\":11043:11045   */\n      0x20\n        /* \"#utility.yul\":11031:11041   */\n      dup6\n        /* \"#utility.yul\":11028:11046   */\n      lt\n        /* \"#utility.yul\":11025:11074   */\n      iszero\n      tag_213\n      jumpi\n        /* \"#utility.yul\":11064:11072   */\n      dup2\n        /* \"#utility.yul\":11049:11072   */\n      swap1\n      pop\n        /* \"#utility.yul\":11025:11074   */\n    tag_213:\n        /* \"#utility.yul\":11087:11167   */\n      tag_214\n        /* \"#utility.yul\":11143:11165   */\n      tag_215\n        /* \"#utility.yul\":11161:11164   */\n      dup6\n        /* \"#utility.yul\":11143:11165   */\n      tag_77\n      jump\t// in\n    tag_215:\n        /* \"#utility.yul\":11133:11141   */\n      dup4\n        /* \"#utility.yul\":11129:11166   */\n      add\n        /* \"#utility.yul\":11116:11127   */\n      dup3\n        /* \"#utility.yul\":11087:11167   */\n      tag_86\n      jump\t// in\n    tag_214:\n        /* \"#utility.yul\":10746:11177   */\n      pop\n      pop\n        /* \"#utility.yul\":10731:11177   */\n    tag_210:\n        /* \"#utility.yul\":10641:11184   */\n      pop\n      pop\n      pop\n      jump\t// out\n        /* \"#utility.yul\":11190:11307   */\n    tag_88:\n        /* \"#utility.yul\":11244:11252   */\n      0x00\n        /* \"#utility.yul\":11294:11299   */\n      dup3\n        /* \"#utility.yul\":11288:11292   */\n      dup3\n        /* \"#utility.yul\":11284:11300   */\n      shr\n        /* \"#utility.yul\":11263:11300   */\n      swap1\n      pop\n        /* \"#utility.yul\":11190:11307   */\n      swap3\n      swap2\n      pop\n      pop\n      jump\t// out\n        /* \"#utility.yul\":11313:11482   */\n    tag_89:\n        /* \"#utility.yul\":11357:11363   */\n      0x00\n        /* \"#utility.yul\":11390:11441   */\n      tag_218\n        /* \"#utility.yul\":11438:11439   */\n      0x00\n        /* \"#utility.yul\":11434:11440   */\n      not\n        /* \"#utility.yul\":11426:11431   */\n      dup5\n        /* \"#utility.yul\":11423:11424   */\n      0x08\n        /* \"#utility.yul\":11419:11432   */\n      mul\n        /* \"#utility.yul\":11390:11441   */\n      tag_88\n      jump\t// in\n    tag_218:\n        /* \"#utility.yul\":11386:11442   */\n      not\n        /* \"#utility.yul\":11471:11475   */\n      dup1\n        /* \"#utility.yul\":11465:11469   */\n      dup4\n        /* \"#utility.yul\":11461:11476   */\n      and\n        /* \"#utility.yul\":11451:11476   */\n      swap2\n      pop\n        /* \"#utility.yul\":11364:11482   */\n      pop\n        /* \"#utility.yul\":11313:11482   */\n      swap3\n      swap2\n      pop\n      pop\n      jump\t// out\n        /* \"#utility.yul\":11487:11782   */\n    tag_90:\n        /* \"#utility.yul\":11563:11567   */\n      0x00\n        /* \"#utility.yul\":11709:11738   */\n      tag_220\n        /* \"#utility.yul\":11734:11737   */\n      dup4\n        /* \"#utility.yul\":11728:11732   */\n      dup4\n        /* \"#utility.yul\":11709:11738   */\n      tag_89\n      jump\t// in\n    tag_220:\n        /* \"#utility.yul\":11701:11738   */\n      swap2\n      pop\n        /* \"#utility.yul\":11771:11774   */\n      dup3\n        /* \"#utility.yul\":11768:11769   */\n      0x02\n        /* \"#utility.yul\":11764:11775   */\n      mul\n        /* \"#utility.yul\":11758:11762   */\n      dup3\n        /* \"#utility.yul\":11755:11776   */\n      or\n        /* \"#utility.yul\":11747:11776   */\n      swap1\n      pop\n        /* \"#utility.yul\":11487:11782   */\n      swap3\n      swap2\n      pop\n      pop\n      jump\t// out\n        /* \"#utility.yul\":11787:13182   */\n    tag_41:\n        /* \"#utility.yul\":11904:11941   */\n      tag_222\n        /* \"#utility.yul\":11937:11940   */\n      dup3\n        /* \"#utility.yul\":11904:11941   */\n      tag_53\n      jump\t// in\n    tag_222:\n        /* \"#utility.yul\":12006:12024   */\n      0xffffffffffffffff\n        /* \"#utility.yul\":11998:12004   */\n      dup2\n        /* \"#utility.yul\":11995:12025   */\n      gt\n        /* \"#utility.yul\":11992:12048   */\n      iszero\n      tag_223\n      jumpi\n        /* \"#utility.yul\":12028:12046   */\n      tag_224\n      tag_62\n      jump\t// in\n    tag_224:\n        /* \"#utility.yul\":11992:12048   */\n    tag_223:\n        /* \"#utility.yul\":12072:12110   */\n      tag_225\n        /* \"#utility.yul\":12104:12108   */\n      dup3\n        /* \"#utility.yul\":12098:12109   */\n      sload\n        /* \"#utility.yul\":12072:12110   */\n      tag_21\n      jump\t// in\n    tag_225:\n        /* \"#utility.yul\":12157:12224   */\n      tag_226\n        /* \"#utility.yul\":12217:12223   */\n      dup3\n        /* \"#utility.yul\":12209:12215   */\n      dup3\n        /* \"#utility.yul\":12203:12207   */\n      dup6\n        /* \"#utility.yul\":12157:12224   */\n      tag_87\n      jump\t// in\n    tag_226:\n        /* \"#utility.yul\":12251:12252   */\n      0x00\n        /* \"#utility.yul\":12275:12279   */\n      0x20\n        /* \"#utility.yul\":12262:12279   */\n      swap1\n      pop\n        /* \"#utility.yul\":12307:12309   */\n      0x1f\n        /* \"#utility.yul\":12299:12305   */\n      dup4\n        /* \"#utility.yul\":12296:12310   */\n      gt\n        /* \"#utility.yul\":12324:12325   */\n      0x01\n        /* \"#utility.yul\":12319:12937   */\n      dup2\n      eq\n      tag_228\n      jumpi\n        /* \"#utility.yul\":12981:12982   */\n      0x00\n        /* \"#utility.yul\":12998:13004   */\n      dup5\n        /* \"#utility.yul\":12995:13072   */\n      iszero\n      tag_229\n      jumpi\n        /* \"#utility.yul\":13047:13056   */\n      dup3\n        /* \"#utility.yul\":13042:13045   */\n      dup8\n        /* \"#utility.yul\":13038:13057   */\n      add\n        /* \"#utility.yul\":13032:13058   */\n      mload\n        /* \"#utility.yul\":13023:13058   */\n      swap1\n      pop\n        /* \"#utility.yul\":12995:13072   */\n    tag_229:\n        /* \"#utility.yul\":13098:13165   */\n      tag_230\n        /* \"#utility.yul\":13158:13164   */\n      dup6\n        /* \"#utility.yul\":13151:13156   */\n      dup3\n        /* \"#utility.yul\":13098:13165   */\n      tag_90\n      jump\t// in\n    tag_230:\n        /* \"#utility.yul\":13092:13096   */\n      dup7\n        /* \"#utility.yul\":13085:13166   */\n      sstore\n        /* \"#utility.yul\":12954:13176   */\n      pop\n        /* \"#utility.yul\":12289:13176   */\n      jump(tag_227)\n        /* \"#utility.yul\":12319:12937   */\n    tag_228:\n        /* \"#utility.yul\":12371:12375   */\n      0x1f\n        /* \"#utility.yul\":12367:12376   */\n      not\n        /* \"#utility.yul\":12359:12365   */\n      dup5\n        /* \"#utility.yul\":12355:12377   */\n      and\n        /* \"#utility.yul\":12405:12442   */\n      tag_231\n        /* \"#utility.yul\":12437:12441   */\n      dup7\n        /* \"#utility.yul\":12405:12442   */\n      tag_76\n      jump\t// in\n    tag_231:\n        /* \"#utility.yul\":12464:12465   */\n      0x00\n        /* \"#utility.yul\":12478:12686   */\n    tag_232:\n        /* \"#utility.yul\":12492:12499   */\n      dup3\n        /* \"#utility.yul\":12489:12490   */\n      dup2\n        /* \"#utility.yul\":12486:12500   */\n      lt\n        /* \"#utility.yul\":12478:12686   */\n      iszero\n      tag_234\n      jumpi\n        /* \"#utility.yul\":12571:12580   */\n      dup5\n        /* \"#utility.yul\":12566:12569   */\n      dup10\n        /* \"#utility.yul\":12562:12581   */\n      add\n        /* \"#utility.yul\":12556:12582   */\n      mload\n        /* \"#utility.yul\":12548:12554   */\n      dup3\n        /* \"#utility.yul\":12541:12583   */\n      sstore\n        /* \"#utility.yul\":12622:12623   */\n      0x01\n        /* \"#utility.yul\":12614:12620   */\n      dup3\n        /* \"#utility.yul\":12610:12624   */\n      add\n        /* \"#utility.yul\":12600:12624   */\n      swap2\n      pop\n        /* \"#utility.yul\":12669:12671   */\n      0x20\n        /* \"#utility.yul\":12658:12667   */\n      dup6\n        /* \"#utility.yul\":12654:12672   */\n      add\n        /* \"#utility.yul\":12641:12672   */\n      swap5\n      pop\n        /* \"#utility.yul\":12515:12519   */\n      0x20\n        /* \"#utility.yul\":12512:12513   */\n      dup2\n        /* \"#utility.yul\":12508:12520   */\n      add\n        /* \"#utility.yul\":12503:12520   */\n      swap1\n      pop\n        /* \"#utility.yul\":12478:12686   */\n      jump(tag_232)\n    tag_234:\n        /* \"#utility.yul\":12714:12720   */\n      dup7\n        /* \"#utility.yul\":12705:12712   */\n      dup4\n        /* \"#utility.yul\":12702:12721   */\n      lt\n        /* \"#utility.yul\":12699:12878   */\n      iszero\n      tag_235\n      jumpi\n        /* \"#utility.yul\":12772:12781   */\n      dup5\n        /* \"#utility.yul\":12767:12770   */\n      dup10\n        /* \"#utility.yul\":12763:12782   */\n      add\n        /* \"#utility.yul\":12757:12783   */\n      mload\n        /* \"#utility.yul\":12815:12863   */\n      tag_236\n        /* \"#utility.yul\":12857:12861   */\n      0x1f\n        /* \"#utility.yul\":12849:12855   */\n      dup10\n        /* \"#utility.yul\":12845:12862   */\n      and\n        /* \"#utility.yul\":12834:12843   */\n      dup3\n        /* \"#utility.yul\":12815:12863   */\n      tag_89\n      jump\t// in\n    tag_236:\n        /* \"#utility.yul\":12807:12813   */\n      dup4\n        /* \"#utility.yul\":12800:12864   */\n      sstore\n        /* \"#utility.yul\":12722:12878   */\n      pop\n        /* \"#utility.yul\":12699:12878   */\n    tag_235:\n        /* \"#utility.yul\":12924:12925   */\n      0x01\n        /* \"#utility.yul\":12920:12921   */\n      0x02\n        /* \"#utility.yul\":12912:12918   */\n      dup9\n        /* \"#utility.yul\":12908:12922   */\n      mul\n        /* \"#utility.yul\":12904:12926   */\n      add\n        /* \"#utility.yul\":12898:12902   */\n      dup9\n        /* \"#utility.yul\":12891:12927   */\n      sstore\n        /* \"#utility.yul\":12326:12937   */\n      pop\n      pop\n      pop\n        /* \"#utility.yul\":12289:13176   */\n    tag_227:\n      pop\n        /* \"#utility.yul\":11879:13182   */\n      pop\n      pop\n      pop\n        /* \"#utility.yul\":11787:13182   */\n      pop\n      pop\n      jump\t// out\n        /* \"#utility.yul\":13188:13611   */\n    tag_43:\n        /* \"#utility.yul\":13329:13333   */\n      0x00\n        /* \"#utility.yul\":13367:13369   */\n      0x40\n        /* \"#utility.yul\":13356:13365   */\n      dup3\n        /* \"#utility.yul\":13352:13370   */\n      add\n        /* \"#utility.yul\":13344:13370   */\n      swap1\n      pop\n        /* \"#utility.yul\":13416:13425   */\n      dup2\n        /* \"#utility.yul\":13410:13414   */\n      dup2\n        /* \"#utility.yul\":13406:13426   */\n      sub\n        /* \"#utility.yul\":13402:13403   */\n      0x00\n        /* \"#utility.yul\":13391:13400   */\n      dup4\n        /* \"#utility.yul\":13387:13404   */\n      add\n        /* \"#utility.yul\":13380:13427   */\n      mstore\n        /* \"#utility.yul\":13444:13522   */\n      tag_238\n        /* \"#utility.yul\":13517:13521   */\n      dup2\n        /* \"#utility.yul\":13508:13514   */\n      dup6\n        /* \"#utility.yul\":13444:13522   */\n      tag_57\n      jump\t// in\n    tag_238:\n        /* \"#utility.yul\":13436:13522   */\n      swap1\n      pop\n        /* \"#utility.yul\":13532:13604   */\n      tag_239\n        /* \"#utility.yul\":13600:13602   */\n      0x20\n        /* \"#utility.yul\":13589:13598   */\n      dup4\n        /* \"#utility.yul\":13585:13603   */\n      add\n        /* \"#utility.yul\":13576:13582   */\n      dup5\n        /* \"#utility.yul\":13532:13604   */\n      tag_59\n      jump\t// in\n    tag_239:\n        /* \"#utility.yul\":13188:13611   */\n      swap4\n      swap3\n      pop\n      pop\n      pop\n      jump\t// out\n\n    auxdata: 0xa264697066735822122033d95a45350f01d729a6cb7034491ef553a386e88e299f762c2444edfc267fd164736f6c63430008180033\n}\n",
				"bytecode": {
					"linkReferences": {},
					"object": "608060405234801561000f575f80fd5b50335f806101000a81548173ffffffffffffffffffffffffffffffffffffffff021916908373ffffffffffffffffffffffffffffffffffffffff160217905550610c648061005c5f395ff3fe608060405234801561000f575f80fd5b506004361061003f575f3560e01c8063336989ae14610043578063cb949e5114610075578063f8c47849146100a7575b5f80fd5b61005d6004803603810190610058919061055c565b6100c3565b60405161006c93929190610643565b60405180910390f35b61008f600480360381019061008a919061055c565b61017b565b60405161009e93929190610643565b60405180910390f35b6100c160048036038101906100bc91906107d5565b6102e3565b005b6001602052805f5260405f205f91509050805f015f9054906101000a900460ff16908060010180546100f49061086e565b80601f01602080910402602001604051908101604052809291908181526020018280546101209061086e565b801561016b5780601f106101425761010080835404028352916020019161016b565b820191905f5260205f20905b81548152906001019060200180831161014e57829003601f168201915b5050505050908060020154905083565b5f60605f60015f8573ffffffffffffffffffffffffffffffffffffffff1673ffffffffffffffffffffffffffffffffffffffff1681526020019081526020015f205f015f9054906101000a900460ff1660015f8673ffffffffffffffffffffffffffffffffffffffff1673ffffffffffffffffffffffffffffffffffffffff1681526020019081526020015f2060010160015f8773ffffffffffffffffffffffffffffffffffffffff1673ffffffffffffffffffffffffffffffffffffffff1681526020019081526020015f20600201548180546102589061086e565b80601f01602080910402602001604051908101604052809291908181526020018280546102849061086e565b80156102cf5780601f106102a6576101008083540402835291602001916102cf565b820191905f5260205f20905b8154815290600101906020018083116102b257829003601f168201915b505050505091509250925092509193909250565b5f8054906101000a900473ffffffffffffffffffffffffffffffffffffffff1673ffffffffffffffffffffffffffffffffffffffff163373ffffffffffffffffffffffffffffffffffffffff1614610370576040517f08c379a00000000000000000000000000000000000000000000000000000000081526004016103679061090e565b60405180910390fd5b5f151560015f8573ffffffffffffffffffffffffffffffffffffffff1673ffffffffffffffffffffffffffffffffffffffff1681526020019081526020015f205f015f9054906101000a900460ff16151514610401576040517f08c379a00000000000000000000000000000000000000000000000000000000081526004016103f890610976565b60405180910390fd5b60405180606001604052806001151581526020018381526020018281525060015f8573ffffffffffffffffffffffffffffffffffffffff1673ffffffffffffffffffffffffffffffffffffffff1681526020019081526020015f205f820151815f015f6101000a81548160ff021916908315150217905550602082015181600101908161048e9190610b31565b50604082015181600201559050508273ffffffffffffffffffffffffffffffffffffffff167f958be9ce265b942557be2c8ee28229be0917eff33a932bcb7749a33b798b53f883836040516104e4929190610c00565b60405180910390a2505050565b5f604051905090565b5f80fd5b5f80fd5b5f73ffffffffffffffffffffffffffffffffffffffff82169050919050565b5f61052b82610502565b9050919050565b61053b81610521565b8114610545575f80fd5b50565b5f8135905061055681610532565b92915050565b5f60208284031215610571576105706104fa565b5b5f61057e84828501610548565b91505092915050565b5f8115159050919050565b61059b81610587565b82525050565b5f81519050919050565b5f82825260208201905092915050565b5f5b838110156105d85780820151818401526020810190506105bd565b5f8484015250505050565b5f601f19601f8301169050919050565b5f6105fd826105a1565b61060781856105ab565b93506106178185602086016105bb565b610620816105e3565b840191505092915050565b5f819050919050565b61063d8161062b565b82525050565b5f6060820190506106565f830186610592565b818103602083015261066881856105f3565b90506106776040830184610634565b949350505050565b5f80fd5b5f80fd5b7f4e487b71000000000000000000000000000000000000000000000000000000005f52604160045260245ffd5b6106bd826105e3565b810181811067ffffffffffffffff821117156106dc576106db610687565b5b80604052505050565b5f6106ee6104f1565b90506106fa82826106b4565b919050565b5f67ffffffffffffffff82111561071957610718610687565b5b610722826105e3565b9050602081019050919050565b828183375f83830152505050565b5f61074f61074a846106ff565b6106e5565b90508281526020810184848401111561076b5761076a610683565b5b61077684828561072f565b509392505050565b5f82601f8301126107925761079161067f565b5b81356107a284826020860161073d565b91505092915050565b6107b48161062b565b81146107be575f80fd5b50565b5f813590506107cf816107ab565b92915050565b5f805f606084860312156107ec576107eb6104fa565b5b5f6107f986828701610548565b935050602084013567ffffffffffffffff81111561081a576108196104fe565b5b6108268682870161077e565b9250506040610837868287016107c1565b9150509250925092565b7f4e487b71000000000000000000000000000000000000000000000000000000005f52602260045260245ffd5b5f600282049050600182168061088557607f821691505b60208210810361089857610897610841565b5b50919050565b7f4f6e6c792061646d696e2063616e20706572666f726d207468697320616374695f8201527f6f6e000000000000000000000000000000000000000000000000000000000000602082015250565b5f6108f86022836105ab565b91506109038261089e565b604082019050919050565b5f6020820190508181035f830152610925816108ec565b9050919050565b7f437573746f6d657220616c7265616479207665726966696564000000000000005f82015250565b5f6109606019836105ab565b915061096b8261092c565b602082019050919050565b5f6020820190508181035f83015261098d81610954565b9050919050565b5f819050815f5260205f209050919050565b5f6020601f8301049050919050565b5f82821b905092915050565b5f600883026109f07fffffffffffffffffffffffffffffffffffffffffffffffffffffffffffffffff826109b5565b6109fa86836109b5565b95508019841693508086168417925050509392505050565b5f819050919050565b5f610a35610a30610a2b8461062b565b610a12565b61062b565b9050919050565b5f819050919050565b610a4e83610a1b565b610a62610a5a82610a3c565b8484546109c1565b825550505050565b5f90565b610a76610a6a565b610a81818484610a45565b505050565b5b81811015610aa457610a995f82610a6e565b600181019050610a87565b5050565b601f821115610ae957610aba81610994565b610ac3846109a6565b81016020851015610ad2578190505b610ae6610ade856109a6565b830182610a86565b50505b505050565b5f82821c905092915050565b5f610b095f1984600802610aee565b1980831691505092915050565b5f610b218383610afa565b9150826002028217905092915050565b610b3a826105a1565b67ffffffffffffffff811115610b5357610b52610687565b5b610b5d825461086e565b610b68828285610aa8565b5f60209050601f831160018114610b99575f8415610b87578287015190505b610b918582610b16565b865550610bf8565b601f198416610ba786610994565b5f5b82811015610bce57848901518255600182019150602085019450602081019050610ba9565b86831015610beb5784890151610be7601f891682610afa565b8355505b6001600288020188555050505b505050505050565b5f6040820190508181035f830152610c1881856105f3565b9050610c276020830184610634565b939250505056fea264697066735822122033d95a45350f01d729a6cb7034491ef553a386e88e299f762c2444edfc267fd164736f6c63430008180033",
					"opcodes": "PUSH1 0x80 PUSH1 0x40 MSTORE CALLVALUE DUP1 ISZERO PUSH2 0xF JUMPI PUSH0 DUP1 REVERT JUMPDEST POP CALLER PUSH0 DUP1 PUSH2 0x100 EXP DUP2 SLOAD DUP2 PUSH20 0xFFFFFFFFFFFFFFFFFFFFFFFFFFFFFFFFFFFFFFFF MUL NOT AND SWAP1 DUP4 PUSH20 0xFFFFFFFFFFFFFFFFFFFFFFFFFFFFFFFFFFFFFFFF AND MUL OR SWAP1 SSTORE POP PUSH2 0xC64 DUP1 PUSH2 0x5C PUSH0 CODECOPY PUSH0 RETURN INVALID PUSH1 0x80 PUSH1 0x40 MSTORE CALLVALUE DUP1 ISZERO PUSH2 0xF JUMPI PUSH0 DUP1 REVERT JUMPDEST POP PUSH1 0x4 CALLDATASIZE LT PUSH2 0x3F JUMPI PUSH0 CALLDATALOAD PUSH1 0xE0 SHR DUP1 PUSH4 0x336989AE EQ PUSH2 0x43 JUMPI DUP1 PUSH4 0xCB949E51 EQ PUSH2 0x75 JUMPI DUP1 PUSH4 0xF8C47849 EQ PUSH2 0xA7 JUMPI JUMPDEST PUSH0 DUP1 REVERT JUMPDEST PUSH2 0x5D PUSH1 0x4 DUP1 CALLDATASIZE SUB DUP2 ADD SWAP1 PUSH2 0x58 SWAP2 SWAP1 PUSH2 0x55C JUMP JUMPDEST PUSH2 0xC3 JUMP JUMPDEST PUSH1 0x40 MLOAD PUSH2 0x6C SWAP4 SWAP3 SWAP2 SWAP1 PUSH2 0x643 JUMP JUMPDEST PUSH1 0x40 MLOAD DUP1 SWAP2 SUB SWAP1 RETURN JUMPDEST PUSH2 0x8F PUSH1 0x4 DUP1 CALLDATASIZE SUB DUP2 ADD SWAP1 PUSH2 0x8A SWAP2 SWAP1 PUSH2 0x55C JUMP JUMPDEST PUSH2 0x17B JUMP JUMPDEST PUSH1 0x40 MLOAD PUSH2 0x9E SWAP4 SWAP3 SWAP2 SWAP1 PUSH2 0x643 JUMP JUMPDEST PUSH1 0x40 MLOAD DUP1 SWAP2 SUB SWAP1 RETURN JUMPDEST PUSH2 0xC1 PUSH1 0x4 DUP1 CALLDATASIZE SUB DUP2 ADD SWAP1 PUSH2 0xBC SWAP2 SWAP1 PUSH2 0x7D5 JUMP JUMPDEST PUSH2 0x2E3 JUMP JUMPDEST STOP JUMPDEST PUSH1 0x1 PUSH1 0x20 MSTORE DUP1 PUSH0 MSTORE PUSH1 0x40 PUSH0 KECCAK256 PUSH0 SWAP2 POP SWAP1 POP DUP1 PUSH0 ADD PUSH0 SWAP1 SLOAD SWAP1 PUSH2 0x100 EXP SWAP1 DIV PUSH1 0xFF AND SWAP1 DUP1 PUSH1 0x1 ADD DUP1 SLOAD PUSH2 0xF4 SWAP1 PUSH2 0x86E JUMP JUMPDEST DUP1 PUSH1 0x1F ADD PUSH1 0x20 DUP1 SWAP2 DIV MUL PUSH1 0x20 ADD PUSH1 0x40 MLOAD SWAP1 DUP2 ADD PUSH1 0x40 MSTORE DUP1 SWAP3 SWAP2 SWAP1 DUP2 DUP2 MSTORE PUSH1 0x20 ADD DUP3 DUP1 SLOAD PUSH2 0x120 SWAP1 PUSH2 0x86E JUMP JUMPDEST DUP1 ISZERO PUSH2 0x16B JUMPI DUP1 PUSH1 0x1F LT PUSH2 0x142 JUMPI PUSH2 0x100 DUP1 DUP4 SLOAD DIV MUL DUP4 MSTORE SWAP2 PUSH1 0x20 ADD SWAP2 PUSH2 0x16B JUMP JUMPDEST DUP3 ADD SWAP2 SWAP1 PUSH0 MSTORE PUSH1 0x20 PUSH0 KECCAK256 SWAP1 JUMPDEST DUP2 SLOAD DUP2 MSTORE SWAP1 PUSH1 0x1 ADD SWAP1 PUSH1 0x20 ADD DUP1 DUP4 GT PUSH2 0x14E JUMPI DUP3 SWAP1 SUB PUSH1 0x1F AND DUP3 ADD SWAP2 JUMPDEST POP POP POP POP POP SWAP1 DUP1 PUSH1 0x2 ADD SLOAD SWAP1 POP DUP4 JUMP JUMPDEST PUSH0 PUSH1 0x60 PUSH0 PUSH1 0x1 PUSH0 DUP6 PUSH20 0xFFFFFFFFFFFFFFFFFFFFFFFFFFFFFFFFFFFFFFFF AND PUSH20 0xFFFFFFFFFFFFFFFFFFFFFFFFFFFFFFFFFFFFFFFF AND DUP2 MSTORE PUSH1 0x20 ADD SWAP1 DUP2 MSTORE PUSH1 0x20 ADD PUSH0 KECCAK256 PUSH0 ADD PUSH0 SWAP1 SLOAD SWAP1 PUSH2 0x100 EXP SWAP1 DIV PUSH1 0xFF AND PUSH1 0x1 PUSH0 DUP7 PUSH20 0xFFFFFFFFFFFFFFFFFFFFFFFFFFFFFFFFFFFFFFFF AND PUSH20 0xFFFFFFFFFFFFFFFFFFFFFFFFFFFFFFFFFFFFFFFF AND DUP2 MSTORE PUSH1 0x20 ADD SWAP1 DUP2 MSTORE PUSH1 0x20 ADD PUSH0 KECCAK256 PUSH1 0x1 ADD PUSH1 0x1 PUSH0 DUP8 PUSH20 0xFFFFFFFFFFFFFFFFFFFFFFFFFFFFFFFFFFFFFFFF AND PUSH20 0xFFFFFFFFFFFFFFFFFFFFFFFFFFFFFFFFFFFFFFFF AND DUP2 MSTORE PUSH1 0x20 ADD SWAP1 DUP2 MSTORE PUSH1 0x20 ADD PUSH0 KECCAK256 PUSH1 0x2 ADD SLOAD DUP2 DUP1 SLOAD PUSH2 0x258 SWAP1 PUSH2 0x86E JUMP JUMPDEST DUP1 PUSH1 0x1F ADD PUSH1 0x20 DUP1 SWAP2 DIV MUL PUSH1 0x20 ADD PUSH1 0x40 MLOAD SWAP1 DUP2 ADD PUSH1 0x40 MSTORE DUP1 SWAP3 SWAP2 SWAP1 DUP2 DUP2 MSTORE PUSH1 0x20 ADD DUP3 DUP1 SLOAD PUSH2 0x284 SWAP1 PUSH2 0x86E JUMP JUMPDEST DUP1 ISZERO PUSH2 0x2CF JUMPI DUP1 PUSH1 0x1F LT PUSH2 0x2A6 JUMPI PUSH2 0x100 DUP1 DUP4 SLOAD DIV MUL DUP4 MSTORE SWAP2 PUSH1 0x20 ADD SWAP2 PUSH2 0x2CF JUMP JUMPDEST DUP3 ADD SWAP2 SWAP1 PUSH0 MSTORE PUSH1 0x20 PUSH0 KECCAK256 SWAP1 JUMPDEST DUP2 SLOAD DUP2 MSTORE SWAP1 PUSH1 0x1 ADD SWAP1 PUSH1 0x20 ADD DUP1 DUP4 GT PUSH2 0x2B2 JUMPI DUP3 SWAP1 SUB PUSH1 0x1F AND DUP3 ADD SWAP2 JUMPDEST POP POP POP POP POP SWAP2 POP SWAP3 POP SWAP3 POP SWAP3 POP SWAP2 SWAP4 SWAP1 SWAP3 POP JUMP JUMPDEST PUSH0 DUP1 SLOAD SWAP1 PUSH2 0x100 EXP SWAP1 DIV PUSH20 0xFFFFFFFFFFFFFFFFFFFFFFFFFFFFFFFFFFFFFFFF AND PUSH20 0xFFFFFFFFFFFFFFFFFFFFFFFFFFFFFFFFFFFFFFFF AND CALLER PUSH20 0xFFFFFFFFFFFFFFFFFFFFFFFFFFFFFFFFFFFFFFFF AND EQ PUSH2 0x370 JUMPI PUSH1 0x40 MLOAD PUSH32 0x8C379A000000000000000000000000000000000000000000000000000000000 DUP2 MSTORE PUSH1 0x4 ADD PUSH2 0x367 SWAP1 PUSH2 0x90E JUMP JUMPDEST PUSH1 0x40 MLOAD DUP1 SWAP2 SUB SWAP1 REVERT JUMPDEST PUSH0 ISZERO ISZERO PUSH1 0x1 PUSH0 DUP6 PUSH20 0xFFFFFFFFFFFFFFFFFFFFFFFFFFFFFFFFFFFFFFFF AND PUSH20 0xFFFFFFFFFFFFFFFFFFFFFFFFFFFFFFFFFFFFFFFF AND DUP2 MSTORE PUSH1 0x20 ADD SWAP1 DUP2 MSTORE PUSH1 0x20 ADD PUSH0 KECCAK256 PUSH0 ADD PUSH0 SWAP1 SLOAD SWAP1 PUSH2 0x100 EXP SWAP1 DIV PUSH1 0xFF AND ISZERO ISZERO EQ PUSH2 0x401 JUMPI PUSH1 0x40 MLOAD PUSH32 0x8C379A000000000000000000000000000000000000000000000000000000000 DUP2 MSTORE PUSH1 0x4 ADD PUSH2 0x3F8 SWAP1 PUSH2 0x976 JUMP JUMPDEST PUSH1 0x40 MLOAD DUP1 SWAP2 SUB SWAP1 REVERT JUMPDEST PUSH1 0x40 MLOAD DUP1 PUSH1 0x60 ADD PUSH1 0x40 MSTORE DUP1 PUSH1 0x1 ISZERO ISZERO DUP2 MSTORE PUSH1 0x20 ADD DUP4 DUP2 MSTORE PUSH1 0x20 ADD DUP3 DUP2 MSTORE POP PUSH1 0x1 PUSH0 DUP6 PUSH20 0xFFFFFFFFFFFFFFFFFFFFFFFFFFFFFFFFFFFFFFFF AND PUSH20 0xFFFFFFFFFFFFFFFFFFFFFFFFFFFFFFFFFFFFFFFF AND DUP2 MSTORE PUSH1 0x20 ADD SWAP1 DUP2 MSTORE PUSH1 0x20 ADD PUSH0 KECCAK256 PUSH0 DUP3 ADD MLOAD DUP2 PUSH0 ADD PUSH0 PUSH2 0x100 EXP DUP2 SLOAD DUP2 PUSH1 0xFF MUL NOT AND SWAP1 DUP4 ISZERO ISZERO MUL OR SWAP1 SSTORE POP PUSH1 0x20 DUP3 ADD MLOAD DUP2 PUSH1 0x1 ADD SWAP1 DUP2 PUSH2 0x48E SWAP2 SWAP1 PUSH2 0xB31 JUMP JUMPDEST POP PUSH1 0x40 DUP3 ADD MLOAD DUP2 PUSH1 0x2 ADD SSTORE SWAP1 POP POP DUP3 PUSH20 0xFFFFFFFFFFFFFFFFFFFFFFFFFFFFFFFFFFFFFFFF AND PUSH32 0x958BE9CE265B942557BE2C8EE28229BE0917EFF33A932BCB7749A33B798B53F8 DUP4 DUP4 PUSH1 0x40 MLOAD PUSH2 0x4E4 SWAP3 SWAP2 SWAP1 PUSH2 0xC00 JUMP JUMPDEST PUSH1 0x40 MLOAD DUP1 SWAP2 SUB SWAP1 LOG2 POP POP POP JUMP JUMPDEST PUSH0 PUSH1 0x40 MLOAD SWAP1 POP SWAP1 JUMP JUMPDEST PUSH0 DUP1 REVERT JUMPDEST PUSH0 DUP1 REVERT JUMPDEST PUSH0 PUSH20 0xFFFFFFFFFFFFFFFFFFFFFFFFFFFFFFFFFFFFFFFF DUP3 AND SWAP1 POP SWAP2 SWAP1 POP JUMP JUMPDEST PUSH0 PUSH2 0x52B DUP3 PUSH2 0x502 JUMP JUMPDEST SWAP1 POP SWAP2 SWAP1 POP JUMP JUMPDEST PUSH2 0x53B DUP2 PUSH2 0x521 JUMP JUMPDEST DUP2 EQ PUSH2 0x545 JUMPI PUSH0 DUP1 REVERT JUMPDEST POP JUMP JUMPDEST PUSH0 DUP2 CALLDATALOAD SWAP1 POP PUSH2 0x556 DUP2 PUSH2 0x532 JUMP JUMPDEST SWAP3 SWAP2 POP POP JUMP JUMPDEST PUSH0 PUSH1 0x20 DUP3 DUP5 SUB SLT ISZERO PUSH2 0x571 JUMPI PUSH2 0x570 PUSH2 0x4FA JUMP JUMPDEST JUMPDEST PUSH0 PUSH2 0x57E DUP5 DUP3 DUP6 ADD PUSH2 0x548 JUMP JUMPDEST SWAP2 POP POP SWAP3 SWAP2 POP POP JUMP JUMPDEST PUSH0 DUP2 ISZERO ISZERO SWAP1 POP SWAP2 SWAP1 POP JUMP JUMPDEST PUSH2 0x59B DUP2 PUSH2 0x587 JUMP JUMPDEST DUP3 MSTORE POP POP JUMP JUMPDEST PUSH0 DUP2 MLOAD SWAP1 POP SWAP2 SWAP1 POP JUMP JUMPDEST PUSH0 DUP3 DUP3 MSTORE PUSH1 0x20 DUP3 ADD SWAP1 POP SWAP3 SWAP2 POP POP JUMP JUMPDEST PUSH0 JUMPDEST DUP4 DUP2 LT ISZERO PUSH2 0x5D8 JUMPI DUP1 DUP3 ADD MLOAD DUP2 DUP5 ADD MSTORE PUSH1 0x20 DUP2 ADD SWAP1 POP PUSH2 0x5BD JUMP JUMPDEST PUSH0 DUP5 DUP5 ADD MSTORE POP POP POP POP JUMP JUMPDEST PUSH0 PUSH1 0x1F NOT PUSH1 0x1F DUP4 ADD AND SWAP1 POP SWAP2 SWAP1 POP JUMP JUMPDEST PUSH0 PUSH2 0x5FD DUP3 PUSH2 0x5A1 JUMP JUMPDEST PUSH2 0x607 DUP2 DUP6 PUSH2 0x5AB JUMP JUMPDEST SWAP4 POP PUSH2 0x617 DUP2 DUP6 PUSH1 0x20 DUP7 ADD PUSH2 0x5BB JUMP JUMPDEST PUSH2 0x620 DUP2 PUSH2 0x5E3 JUMP JUMPDEST DUP5 ADD SWAP2 POP POP SWAP3 SWAP2 POP POP JUMP JUMPDEST PUSH0 DUP2 SWAP1 POP SWAP2 SWAP1 POP JUMP JUMPDEST PUSH2 0x63D DUP2 PUSH2 0x62B JUMP JUMPDEST DUP3 MSTORE POP POP JUMP JUMPDEST PUSH0 PUSH1 0x60 DUP3 ADD SWAP1 POP PUSH2 0x656 PUSH0 DUP4 ADD DUP7 PUSH2 0x592 JUMP JUMPDEST DUP2 DUP2 SUB PUSH1 0x20 DUP4 ADD MSTORE PUSH2 0x668 DUP2 DUP6 PUSH2 0x5F3 JUMP JUMPDEST SWAP1 POP PUSH2 0x677 PUSH1 0x40 DUP4 ADD DUP5 PUSH2 0x634 JUMP JUMPDEST SWAP5 SWAP4 POP POP POP POP JUMP JUMPDEST PUSH0 DUP1 REVERT JUMPDEST PUSH0 DUP1 REVERT JUMPDEST PUSH32 0x4E487B7100000000000000000000000000000000000000000000000000000000 PUSH0 MSTORE PUSH1 0x41 PUSH1 0x4 MSTORE PUSH1 0x24 PUSH0 REVERT JUMPDEST PUSH2 0x6BD DUP3 PUSH2 0x5E3 JUMP JUMPDEST DUP2 ADD DUP2 DUP2 LT PUSH8 0xFFFFFFFFFFFFFFFF DUP3 GT OR ISZERO PUSH2 0x6DC JUMPI PUSH2 0x6DB PUSH2 0x687 JUMP JUMPDEST JUMPDEST DUP1 PUSH1 0x40 MSTORE POP POP POP JUMP JUMPDEST PUSH0 PUSH2 0x6EE PUSH2 0x4F1 JUMP JUMPDEST SWAP1 POP PUSH2 0x6FA DUP3 DUP3 PUSH2 0x6B4 JUMP JUMPDEST SWAP2 SWAP1 POP JUMP JUMPDEST PUSH0 PUSH8 0xFFFFFFFFFFFFFFFF DUP3 GT ISZERO PUSH2 0x719 JUMPI PUSH2 0x718 PUSH2 0x687 JUMP JUMPDEST JUMPDEST PUSH2 0x722 DUP3 PUSH2 0x5E3 JUMP JUMPDEST SWAP1 POP PUSH1 0x20 DUP2 ADD SWAP1 POP SWAP2 SWAP1 POP JUMP JUMPDEST DUP3 DUP2 DUP4 CALLDATACOPY PUSH0 DUP4 DUP4 ADD MSTORE POP POP POP JUMP JUMPDEST PUSH0 PUSH2 0x74F PUSH2 0x74A DUP5 PUSH2 0x6FF JUMP JUMPDEST PUSH2 0x6E5 JUMP JUMPDEST SWAP1 POP DUP3 DUP2 MSTORE PUSH1 0x20 DUP2 ADD DUP5 DUP5 DUP5 ADD GT ISZERO PUSH2 0x76B JUMPI PUSH2 0x76A PUSH2 0x683 JUMP JUMPDEST JUMPDEST PUSH2 0x776 DUP5 DUP3 DUP6 PUSH2 0x72F JUMP JUMPDEST POP SWAP4 SWAP3 POP POP POP JUMP JUMPDEST PUSH0 DUP3 PUSH1 0x1F DUP4 ADD SLT PUSH2 0x792 JUMPI PUSH2 0x791 PUSH2 0x67F JUMP JUMPDEST JUMPDEST DUP2 CALLDATALOAD PUSH2 0x7A2 DUP5 DUP3 PUSH1 0x20 DUP7 ADD PUSH2 0x73D JUMP JUMPDEST SWAP2 POP POP SWAP3 SWAP2 POP POP JUMP JUMPDEST PUSH2 0x7B4 DUP2 PUSH2 0x62B JUMP JUMPDEST DUP2 EQ PUSH2 0x7BE JUMPI PUSH0 DUP1 REVERT JUMPDEST POP JUMP JUMPDEST PUSH0 DUP2 CALLDATALOAD SWAP1 POP PUSH2 0x7CF DUP2 PUSH2 0x7AB JUMP JUMPDEST SWAP3 SWAP2 POP POP JUMP JUMPDEST PUSH0 DUP1 PUSH0 PUSH1 0x60 DUP5 DUP7 SUB SLT ISZERO PUSH2 0x7EC JUMPI PUSH2 0x7EB PUSH2 0x4FA JUMP JUMPDEST JUMPDEST PUSH0 PUSH2 0x7F9 DUP7 DUP3 DUP8 ADD PUSH2 0x548 JUMP JUMPDEST SWAP4 POP POP PUSH1 0x20 DUP5 ADD CALLDATALOAD PUSH8 0xFFFFFFFFFFFFFFFF DUP2 GT ISZERO PUSH2 0x81A JUMPI PUSH2 0x819 PUSH2 0x4FE JUMP JUMPDEST JUMPDEST PUSH2 0x826 DUP7 DUP3 DUP8 ADD PUSH2 0x77E JUMP JUMPDEST SWAP3 POP POP PUSH1 0x40 PUSH2 0x837 DUP7 DUP3 DUP8 ADD PUSH2 0x7C1 JUMP JUMPDEST SWAP2 POP POP SWAP3 POP SWAP3 POP SWAP3 JUMP JUMPDEST PUSH32 0x4E487B7100000000000000000000000000000000000000000000000000000000 PUSH0 MSTORE PUSH1 0x22 PUSH1 0x4 MSTORE PUSH1 0x24 PUSH0 REVERT JUMPDEST PUSH0 PUSH1 0x2 DUP3 DIV SWAP1 POP PUSH1 0x1 DUP3 AND DUP1 PUSH2 0x885 JUMPI PUSH1 0x7F DUP3 AND SWAP2 POP JUMPDEST PUSH1 0x20 DUP3 LT DUP2 SUB PUSH2 0x898 JUMPI PUSH2 0x897 PUSH2 0x841 JUMP JUMPDEST JUMPDEST POP SWAP2 SWAP1 POP JUMP JUMPDEST PUSH32 0x4F6E6C792061646D696E2063616E20706572666F726D20746869732061637469 PUSH0 DUP3 ADD MSTORE PUSH32 0x6F6E000000000000000000000000000000000000000000000000000000000000 PUSH1 0x20 DUP3 ADD MSTORE POP JUMP JUMPDEST PUSH0 PUSH2 0x8F8 PUSH1 0x22 DUP4 PUSH2 0x5AB JUMP JUMPDEST SWAP2 POP PUSH2 0x903 DUP3 PUSH2 0x89E JUMP JUMPDEST PUSH1 0x40 DUP3 ADD SWAP1 POP SWAP2 SWAP1 POP JUMP JUMPDEST PUSH0 PUSH1 0x20 DUP3 ADD SWAP1 POP DUP2 DUP2 SUB PUSH0 DUP4 ADD MSTORE PUSH2 0x925 DUP2 PUSH2 0x8EC JUMP JUMPDEST SWAP1 POP SWAP2 SWAP1 POP JUMP JUMPDEST PUSH32 0x437573746F6D657220616C726561647920766572696669656400000000000000 PUSH0 DUP3 ADD MSTORE POP JUMP JUMPDEST PUSH0 PUSH2 0x960 PUSH1 0x19 DUP4 PUSH2 0x5AB JUMP JUMPDEST SWAP2 POP PUSH2 0x96B DUP3 PUSH2 0x92C JUMP JUMPDEST PUSH1 0x20 DUP3 ADD SWAP1 POP SWAP2 SWAP1 POP JUMP JUMPDEST PUSH0 PUSH1 0x20 DUP3 ADD SWAP1 POP DUP2 DUP2 SUB PUSH0 DUP4 ADD MSTORE PUSH2 0x98D DUP2 PUSH2 0x954 JUMP JUMPDEST SWAP1 POP SWAP2 SWAP1 POP JUMP JUMPDEST PUSH0 DUP2 SWAP1 POP DUP2 PUSH0 MSTORE PUSH1 0x20 PUSH0 KECCAK256 SWAP1 POP SWAP2 SWAP1 POP JUMP JUMPDEST PUSH0 PUSH1 0x20 PUSH1 0x1F DUP4 ADD DIV SWAP1 POP SWAP2 SWAP1 POP JUMP JUMPDEST PUSH0 DUP3 DUP3 SHL SWAP1 POP SWAP3 SWAP2 POP POP JUMP JUMPDEST PUSH0 PUSH1 0x8 DUP4 MUL PUSH2 0x9F0 PUSH32 0xFFFFFFFFFFFFFFFFFFFFFFFFFFFFFFFFFFFFFFFFFFFFFFFFFFFFFFFFFFFFFFFF DUP3 PUSH2 0x9B5 JUMP JUMPDEST PUSH2 0x9FA DUP7 DUP4 PUSH2 0x9B5 JUMP JUMPDEST SWAP6 POP DUP1 NOT DUP5 AND SWAP4 POP DUP1 DUP7 AND DUP5 OR SWAP3 POP POP POP SWAP4 SWAP3 POP POP POP JUMP JUMPDEST PUSH0 DUP2 SWAP1 POP SWAP2 SWAP1 POP JUMP JUMPDEST PUSH0 PUSH2 0xA35 PUSH2 0xA30 PUSH2 0xA2B DUP5 PUSH2 0x62B JUMP JUMPDEST PUSH2 0xA12 JUMP JUMPDEST PUSH2 0x62B JUMP JUMPDEST SWAP1 POP SWAP2 SWAP1 POP JUMP JUMPDEST PUSH0 DUP2 SWAP1 POP SWAP2 SWAP1 POP JUMP JUMPDEST PUSH2 0xA4E DUP4 PUSH2 0xA1B JUMP JUMPDEST PUSH2 0xA62 PUSH2 0xA5A DUP3 PUSH2 0xA3C JUMP JUMPDEST DUP5 DUP5 SLOAD PUSH2 0x9C1 JUMP JUMPDEST DUP3 SSTORE POP POP POP POP JUMP JUMPDEST PUSH0 SWAP1 JUMP JUMPDEST PUSH2 0xA76 PUSH2 0xA6A JUMP JUMPDEST PUSH2 0xA81 DUP2 DUP5 DUP5 PUSH2 0xA45 JUMP JUMPDEST POP POP POP JUMP JUMPDEST JUMPDEST DUP2 DUP2 LT ISZERO PUSH2 0xAA4 JUMPI PUSH2 0xA99 PUSH0 DUP3 PUSH2 0xA6E JUMP JUMPDEST PUSH1 0x1 DUP2 ADD SWAP1 POP PUSH2 0xA87 JUMP JUMPDEST POP POP JUMP JUMPDEST PUSH1 0x1F DUP3 GT ISZERO PUSH2 0xAE9 JUMPI PUSH2 0xABA DUP2 PUSH2 0x994 JUMP JUMPDEST PUSH2 0xAC3 DUP5 PUSH2 0x9A6 JUMP JUMPDEST DUP2 ADD PUSH1 0x20 DUP6 LT ISZERO PUSH2 0xAD2 JUMPI DUP2 SWAP1 POP JUMPDEST PUSH2 0xAE6 PUSH2 0xADE DUP6 PUSH2 0x9A6 JUMP JUMPDEST DUP4 ADD DUP3 PUSH2 0xA86 JUMP JUMPDEST POP POP JUMPDEST POP POP POP JUMP JUMPDEST PUSH0 DUP3 DUP3 SHR SWAP1 POP SWAP3 SWAP2 POP POP JUMP JUMPDEST PUSH0 PUSH2 0xB09 PUSH0 NOT DUP5 PUSH1 0x8 MUL PUSH2 0xAEE JUMP JUMPDEST NOT DUP1 DUP4 AND SWAP2 POP POP SWAP3 SWAP2 POP POP JUMP JUMPDEST PUSH0 PUSH2 0xB21 DUP4 DUP4 PUSH2 0xAFA JUMP JUMPDEST SWAP2 POP DUP3 PUSH1 0x2 MUL DUP3 OR SWAP1 POP SWAP3 SWAP2 POP POP JUMP JUMPDEST PUSH2 0xB3A DUP3 PUSH2 0x5A1 JUMP JUMPDEST PUSH8 0xFFFFFFFFFFFFFFFF DUP2 GT ISZERO PUSH2 0xB53 JUMPI PUSH2 0xB52 PUSH2 0x687 JUMP JUMPDEST JUMPDEST PUSH2 0xB5D DUP3 SLOAD PUSH2 0x86E JUMP JUMPDEST PUSH2 0xB68 DUP3 DUP3 DUP6 PUSH2 0xAA8 JUMP JUMPDEST PUSH0 PUSH1 0x20 SWAP1 POP PUSH1 0x1F DUP4 GT PUSH1 0x1 DUP2 EQ PUSH2 0xB99 JUMPI PUSH0 DUP5 ISZERO PUSH2 0xB87 JUMPI DUP3 DUP8 ADD MLOAD SWAP1 POP JUMPDEST PUSH2 0xB91 DUP6 DUP3 PUSH2 0xB16 JUMP JUMPDEST DUP7 SSTORE POP PUSH2 0xBF8 JUMP JUMPDEST PUSH1 0x1F NOT DUP5 AND PUSH2 0xBA7 DUP7 PUSH2 0x994 JUMP JUMPDEST PUSH0 JUMPDEST DUP3 DUP2 LT ISZERO PUSH2 0xBCE JUMPI DUP5 DUP10 ADD MLOAD DUP3 SSTORE PUSH1 0x1 DUP3 ADD SWAP2 POP PUSH1 0x20 DUP6 ADD SWAP5 POP PUSH1 0x20 DUP2 ADD SWAP1 POP PUSH2 0xBA9 JUMP JUMPDEST DUP7 DUP4 LT ISZERO PUSH2 0xBEB JUMPI DUP5 DUP10 ADD MLOAD PUSH2 0xBE7 PUSH1 0x1F DUP10 AND DUP3 PUSH2 0xAFA JUMP JUMPDEST DUP4 SSTORE POP JUMPDEST PUSH1 0x1 PUSH1 0x2 DUP9 MUL ADD DUP9 SSTORE POP POP POP JUMPDEST POP POP POP POP POP POP JUMP JUMPDEST PUSH0 PUSH1 0x40 DUP3 ADD SWAP1 POP DUP2 DUP2 SUB PUSH0 DUP4 ADD MSTORE PUSH2 0xC18 DUP2 DUP6 PUSH2 0x5F3 JUMP JUMPDEST SWAP1 POP PUSH2 0xC27 PUSH1 0x20 DUP4 ADD DUP5 PUSH2 0x634 JUMP JUMPDEST SWAP4 SWAP3 POP POP POP JUMP INVALID LOG2 PUSH5 0x6970667358 0x22 SLT KECCAK256 CALLER 0xD9 GAS GASLIMIT CALLDATALOAD 0xF ADD 0xD7 0x29 0xA6 0xCB PUSH17 0x34491EF553A386E88E299F762C2444EDFC 0x26 PUSH32 0xD164736F6C634300081800330000000000000000000000000000000000000000 "
				},
				"gasEstimates": {
					"creation": {
						"codeDepositCost": "634400",
						"executionCost": "24933",
						"totalCost": "659333"
					},
					"external": {
						"customers(address)": "infinite",
						"getCustomer(address)": "infinite",
						"verifyCustomer(address,string,uint256)": "infinite"
					}
				},
				"methodIdentifiers": {
					"customers(address)": "336989ae",
					"getCustomer(address)": "cb949e51",
					"verifyCustomer(address,string,uint256)": "f8c47849"
				}
			},
			"storageLayout": {
				"storage": [
					{
						"astId": 10,
						"contract": "contracts/joan.sol:KYC",
						"label": "admin",
						"offset": 0,
						"slot": "0",
						"type": "t_address"
					},
					{
						"astId": 15,
						"contract": "contracts/joan.sol:KYC",
						"label": "customers",
						"offset": 0,
						"slot": "1",
						"type": "t_mapping(t_address,t_struct(Customer)8_storage)"
					}
				],
				"types": {
					"t_address": {
						"encoding": "inplace",
						"label": "address",
						"numberOfBytes": "20"
					},
					"t_bool": {
						"encoding": "inplace",
						"label": "bool",
						"numberOfBytes": "1"
					},
					"t_mapping(t_address,t_struct(Customer)8_storage)": {
						"encoding": "mapping",
						"key": "t_address",
						"label": "mapping(address => struct KYC.Customer)",
						"numberOfBytes": "32",
						"value": "t_struct(Customer)8_storage"
					},
					"t_string_storage": {
						"encoding": "bytes",
						"label": "string",
						"numberOfBytes": "32"
					},
					"t_struct(Customer)8_storage": {
						"encoding": "inplace",
						"label": "struct KYC.Customer",
						"members": [
							{
								"astId": 3,
								"contract": "contracts/joan.sol:KYC",
								"label": "isVerified",
								"offset": 0,
								"slot": "0",
								"type": "t_bool"
							},
							{
								"astId": 5,
								"contract": "contracts/joan.sol:KYC",
								"label": "fullName",
								"offset": 0,
								"slot": "1",
								"type": "t_string_storage"
							},
							{
								"astId": 7,
								"contract": "contracts/joan.sol:KYC",
								"label": "idNumber",
								"offset": 0,
								"slot": "2",
								"type": "t_uint256"
							}
						],
						"numberOfBytes": "96"
					},
					"t_uint256": {
						"encoding": "inplace",
						"label": "uint256",
						"numberOfBytes": "32"
					}
				}
			},
			"userdoc": {
				"kind": "user",
				"methods": {},
				"version": 1
			}
		}
	}
}